2023/11/13 20:56:27.000752 8=FIX.4.4|9=67|35=A|34=1|49=TW|52=20231113-20:56:27.000|56=ISLD|98=0|108=30|141=Y|10=250|
2023/11/13 20:56:27.003418 8=FIX.4.4|9=67|35=A|34=1|49=ISLD|52=20231113-20:56:27.002|56=TW|98=0|108=30|141=Y|10=252|
2023/11/13 20:56:57.001636 8=FIX.4.4|9=49|35=0|34=2|49=TW|52=20231113-20:56:57.001|56=ISLD|10=168|
2023/11/13 20:56:57.006228 8=FIX.4.4|9=49|35=0|34=2|49=ISLD|52=20231113-20:56:57.003|56=TW|10=170|
2023/11/13 20:57:27.001794 8=FIX.4.4|9=49|35=0|34=3|49=TW|52=20231113-20:57:27.001|56=ISLD|10=167|
2023/11/13 20:57:27.008361 8=FIX.4.4|9=49|35=0|34=3|49=ISLD|52=20231113-20:57:27.006|56=TW|10=172|
2023/11/13 20:57:57.002882 8=FIX.4.4|9=49|35=0|34=4|49=TW|52=20231113-20:57:57.002|56=ISLD|10=172|
2023/11/13 20:57:57.010030 8=FIX.4.4|9=49|35=0|34=4|49=ISLD|52=20231113-20:57:57.009|56=TW|10=179|
2023/11/13 20:58:27.003879 8=FIX.4.4|9=49|35=0|34=5|49=TW|52=20231113-20:58:27.003|56=ISLD|10=172|
2023/11/13 20:58:27.012925 8=FIX.4.4|9=49|35=0|34=5|49=ISLD|52=20231113-20:58:27.010|56=TW|10=170|
2023/11/13 20:58:57.005138 8=FIX.4.4|9=49|35=0|34=6|49=TW|52=20231113-20:58:57.005|56=ISLD|10=178|
2023/11/13 20:58:57.015254 8=FIX.4.4|9=49|35=0|34=6|49=ISLD|52=20231113-20:58:57.013|56=TW|10=177|
2023/11/13 20:59:27.005850 8=FIX.4.4|9=49|35=0|34=7|49=TW|52=20231113-20:59:27.005|56=ISLD|10=177|
2023/11/13 20:59:27.017578 8=FIX.4.4|9=49|35=0|34=7|49=ISLD|52=20231113-20:59:27.015|56=TW|10=178|
2023/11/13 20:59:57.007110 8=FIX.4.4|9=49|35=0|34=8|49=TW|52=20231113-20:59:57.007|56=ISLD|10=183|
2023/11/13 20:59:57.019562 8=FIX.4.4|9=49|35=0|34=8|49=ISLD|52=20231113-20:59:57.017|56=TW|10=184|
2023/11/13 21:00:27.008034 8=FIX.4.4|9=49|35=0|34=9|49=TW|52=20231113-21:00:27.007|56=ISLD|10=168|
2023/11/13 21:00:27.022094 8=FIX.4.4|9=49|35=0|34=9|49=ISLD|52=20231113-21:00:27.019|56=TW|10=171|
2023/11/13 21:00:57.008812 8=FIX.4.4|9=50|35=0|34=10|49=TW|52=20231113-21:00:57.008|56=ISLD|10=204|
2023/11/13 21:00:57.024830 8=FIX.4.4|9=50|35=0|34=10|49=ISLD|52=20231113-21:00:57.022|56=TW|10=200|
2023/11/13 21:01:27.009746 8=FIX.4.4|9=50|35=0|34=11|49=TW|52=20231113-21:01:27.009|56=ISLD|10=204|
2023/11/13 21:01:27.026071 8=FIX.4.4|9=50|35=0|34=11|49=ISLD|52=20231113-21:01:27.025|56=TW|10=202|
2023/11/13 21:01:57.010983 8=FIX.4.4|9=50|35=0|34=12|49=TW|52=20231113-21:01:57.010|56=ISLD|10=200|
2023/11/13 21:01:57.029450 8=FIX.4.4|9=50|35=0|34=12|49=ISLD|52=20231113-21:01:57.026|56=TW|10=207|
2023/11/13 21:02:27.011870 8=FIX.4.4|9=50|35=0|34=13|49=TW|52=20231113-21:02:27.011|56=ISLD|10=200|
2023/11/13 21:02:27.031379 8=FIX.4.4|9=50|35=0|34=13|49=ISLD|52=20231113-21:02:27.029|56=TW|10=209|
2023/11/13 21:02:57.013035 8=FIX.4.4|9=50|35=0|34=14|49=TW|52=20231113-21:02:57.012|56=ISLD|10=205|
2023/11/13 21:02:57.033432 8=FIX.4.4|9=50|35=0|34=14|49=ISLD|52=20231113-21:02:57.031|56=TW|10=206|
2023/11/13 21:03:12.965947 8=FIX.4.4|9=50|35=5|34=15|49=TW|52=20231113-21:03:12.965|56=ISLD|10=220|
2023/11/13 21:03:12.974526 8=FIX.4.4|9=50|35=5|34=15|49=ISLD|52=20231113-21:03:12.973|56=TW|10=219|
2023/11/13 21:03:21.001197 8=FIX.4.4|9=67|35=A|34=1|49=TW|52=20231113-21:03:21.001|56=ISLD|98=0|108=30|141=Y|10=238|
2023/11/13 21:03:21.004804 8=FIX.4.4|9=67|35=A|34=1|49=ISLD|52=20231113-21:03:21.004|56=TW|98=0|108=30|141=Y|10=241|
2023/11/13 21:03:29.974120 8=FIX.4.4|9=49|35=5|34=2|49=TW|52=20231113-21:03:29.974|56=ISLD|10=184|
2023/11/13 21:03:29.977114 8=FIX.4.4|9=49|35=5|34=2|49=ISLD|52=20231113-21:03:29.976|56=TW|10=186|
2023/11/13 22:54:46.001938 8=FIX.4.4|9=67|35=A|34=1|49=TW|52=20231113-22:54:46.001|56=ISLD|98=0|108=30|141=Y|10=252|
2023/11/13 22:54:46.012916 8=FIX.4.4|9=67|35=A|34=1|49=ISLD|52=20231113-22:54:46.011|56=TW|98=0|108=30|141=Y|10=253|
2023/11/13 22:55:16.002061 8=FIX.4.4|9=49|35=0|34=2|49=TW|52=20231113-22:55:16.002|56=ISLD|10=165|
2023/11/13 22:55:16.015450 8=FIX.4.4|9=49|35=0|34=2|49=ISLD|52=20231113-22:55:16.013|56=TW|10=167|
2023/11/13 22:55:46.002627 8=FIX.4.4|9=49|35=0|34=3|49=TW|52=20231113-22:55:46.002|56=ISLD|10=169|
2023/11/13 22:55:46.019333 8=FIX.4.4|9=49|35=0|34=3|49=ISLD|52=20231113-22:55:46.015|56=TW|10=173|
2023/11/13 22:56:16.003212 8=FIX.4.4|9=49|35=0|34=4|49=TW|52=20231113-22:56:16.003|56=ISLD|10=169|
2023/11/13 22:56:16.021741 8=FIX.4.4|9=49|35=0|34=4|49=ISLD|52=20231113-22:56:16.019|56=TW|10=176|
2023/11/13 22:56:46.003851 8=FIX.4.4|9=49|35=0|34=5|49=TW|52=20231113-22:56:46.003|56=ISLD|10=173|
2023/11/13 22:56:46.022528 8=FIX.4.4|9=49|35=0|34=5|49=ISLD|52=20231113-22:56:46.021|56=TW|10=173|
2023/11/13 22:56:50.949742 8=FIX.4.4|9=49|35=5|34=6|49=TW|52=20231113-22:56:50.949|56=ISLD|10=193|
2023/11/13 22:56:50.954411 8=FIX.4.4|9=49|35=5|34=6|49=ISLD|52=20231113-22:56:50.953|56=TW|10=188|
2023/11/13 22:56:54.001442 8=FIX.4.4|9=67|35=A|34=1|49=TW|52=20231113-22:56:54.001|56=ISLD|98=0|108=30|141=Y|10=253|
2023/11/13 22:56:54.003484 8=FIX.4.4|9=67|35=A|34=1|49=ISLD|52=20231113-22:56:54.003|56=TW|98=0|108=30|141=Y|10=255|
2023/11/13 22:57:24.001909 8=FIX.4.4|9=49|35=0|34=2|49=TW|52=20231113-22:57:24.001|56=ISLD|10=165|
2023/11/13 22:57:24.005641 8=FIX.4.4|9=49|35=0|34=2|49=ISLD|52=20231113-22:57:24.003|56=TW|10=167|
2023/11/13 22:57:54.002352 8=FIX.4.4|9=49|35=0|34=3|49=TW|52=20231113-22:57:54.002|56=ISLD|10=170|
2023/11/13 22:57:54.006149 8=FIX.4.4|9=49|35=0|34=3|49=ISLD|52=20231113-22:57:54.005|56=TW|10=173|
2023/11/13 22:58:24.003355 8=FIX.4.4|9=49|35=0|34=4|49=TW|52=20231113-22:58:24.003|56=ISLD|10=170|
2023/11/13 22:58:24.007784 8=FIX.4.4|9=49|35=0|34=4|49=ISLD|52=20231113-22:58:24.006|56=TW|10=173|
2023/11/13 22:58:50.139550 8=FIX.4.4|9=49|35=5|34=5|49=TW|52=20231113-22:58:50.139|56=ISLD|10=185|
2023/11/13 22:58:50.144501 8=FIX.4.4|9=49|35=5|34=5|49=ISLD|52=20231113-22:58:50.143|56=TW|10=180|
2023/11/13 22:58:54.001285 8=FIX.4.4|9=67|35=A|34=1|49=TW|52=20231113-22:58:54.001|56=ISLD|98=0|108=30|141=Y|10=255|
2023/11/13 22:58:54.006518 8=FIX.4.4|9=67|35=A|34=1|49=ISLD|52=20231113-22:58:54.005|56=TW|98=0|108=30|141=Y|10=003|
2023/11/13 22:59:24.001756 8=FIX.4.4|9=49|35=0|34=2|49=TW|52=20231113-22:59:24.001|56=ISLD|10=167|
2023/11/13 22:59:24.008169 8=FIX.4.4|9=49|35=0|34=2|49=ISLD|52=20231113-22:59:24.007|56=TW|10=173|
2023/11/13 22:59:36.063806 8=FIX.4.4|9=49|35=5|34=3|49=ISLD|52=20231113-22:59:36.061|56=TW|10=182|
2023/11/13 22:59:36.064052 8=FIX.4.4|9=49|35=5|34=3|49=TW|52=20231113-22:59:36.064|56=ISLD|10=185|
2023/11/13 22:59:47.001173 8=FIX.4.4|9=67|35=A|34=1|49=TW|52=20231113-22:59:47.001|56=ISLD|98=0|108=30|141=Y|10=002|
2023/11/13 22:59:47.010044 8=FIX.4.4|9=67|35=A|34=1|49=ISLD|52=20231113-22:59:47.006|56=TW|98=0|108=30|141=Y|10=007|
2023/11/13 23:00:17.001743 8=FIX.4.4|9=49|35=0|34=2|49=TW|52=20231113-23:00:17.001|56=ISLD|10=156|
2023/11/13 23:00:17.012215 8=FIX.4.4|9=49|35=0|34=2|49=ISLD|52=20231113-23:00:17.010|56=TW|10=156|
2023/11/13 23:11:41.001129 8=FIX.4.4|9=67|35=A|34=1|49=TW|52=20231113-23:11:41.001|56=ISLD|98=0|108=30|141=Y|10=241|
2023/11/13 23:11:41.009835 8=FIX.4.4|9=67|35=A|34=1|49=ISLD|52=20231113-23:11:41.007|56=TW|98=0|108=30|141=Y|10=247|
2023/11/13 23:11:50.554369 8=FIX.4.4|9=49|35=5|34=2|49=TW|52=20231113-23:11:50.554|56=ISLD|10=173|
2023/11/13 23:11:50.558253 8=FIX.4.4|9=49|35=5|34=2|49=ISLD|52=20231113-23:11:50.557|56=TW|10=176|
2023/11/13 23:12:41.001370 8=FIX.4.4|9=61|35=A|34=2|49=TW|52=20231113-23:12:41.001|56=ISLD|98=0|108=30|10=192|
2023/11/13 23:12:41.006867 8=FIX.4.4|9=61|35=A|34=1|49=ISLD|52=20231113-23:12:41.005|56=TW|98=0|108=30|10=195|
2023/11/13 23:12:41.012340 8=FIX.4.4|9=58|35=2|34=2|49=ISLD|52=20231113-23:12:41.008|56=TW|7=1|16=0|10=032|
2023/11/13 23:12:41.012737 8=FIX.4.4|9=129|35=D|34=1|43=Y|49=TW|52=20231113-23:12:41.012|56=ISLD|122=20231113-23:12:40.031|11=12345|40=Market|54=1|60=20231113-23:12:40.031|10=010|
2023/11/13 23:12:41.012850 8=FIX.4.4|9=91|35=4|34=2|43=Y|49=TW|52=20231113-23:12:41.012|56=ISLD|122=20231113-23:12:41.012|36=3|123=Y|10=147|
2023/11/13 23:13:11.013833 8=FIX.4.4|9=49|35=0|34=3|49=TW|52=20231113-23:13:11.013|56=ISLD|10=158|
2023/11/13 23:13:11.014709 8=FIX.4.4|9=49|35=0|34=3|49=ISLD|52=20231113-23:13:11.013|56=TW|10=158|
2023/11/13 23:13:41.014086 8=FIX.4.4|9=49|35=0|34=4|49=TW|52=20231113-23:13:41.014|56=ISLD|10=163|
2023/11/13 23:13:41.019564 8=FIX.4.4|9=49|35=0|34=4|49=ISLD|52=20231113-23:13:41.017|56=TW|10=166|
2023/11/13 23:14:11.015102 8=FIX.4.4|9=49|35=0|34=5|49=TW|52=20231113-23:14:11.015|56=ISLD|10=163|
2023/11/13 23:14:11.020817 8=FIX.4.4|9=49|35=0|34=5|49=ISLD|52=20231113-23:14:11.019|56=TW|10=167|
2023/11/13 23:14:39.859810 8=FIX.4.4|9=49|35=5|34=6|49=TW|52=20231113-23:14:39.859|56=ISLD|10=195|
2023/11/13 23:14:39.865120 8=FIX.4.4|9=49|35=5|34=6|49=ISLD|52=20231113-23:14:39.864|56=TW|10=191|
2023/11/13 23:16:52.002240 8=FIX.4.4|9=67|35=A|34=1|49=TW|52=20231113-23:16:52.002|56=ISLD|98=0|108=30|141=Y|10=249|
2023/11/13 23:16:52.007348 8=FIX.4.4|9=67|35=A|34=1|49=ISLD|52=20231113-23:16:52.006|56=TW|98=0|108=30|141=Y|10=253|
2023/11/13 23:17:22.003360 8=FIX.4.4|9=49|35=0|34=2|49=TW|52=20231113-23:17:22.003|56=ISLD|10=162|
2023/11/13 23:17:22.008217 8=FIX.4.4|9=49|35=0|34=2|49=ISLD|52=20231113-23:17:22.007|56=TW|10=166|
2023/11/13 23:17:52.004331 8=FIX.4.4|9=49|35=0|34=3|49=TW|52=20231113-23:17:52.004|56=ISLD|10=167|
2023/11/13 23:17:52.010680 8=FIX.4.4|9=49|35=0|34=3|49=ISLD|52=20231113-23:17:52.009|56=TW|10=172|
2023/11/13 23:18:22.005203 8=FIX.4.4|9=49|35=0|34=4|49=TW|52=20231113-23:18:22.005|56=ISLD|10=167|
2023/11/13 23:18:22.012442 8=FIX.4.4|9=49|35=0|34=4|49=ISLD|52=20231113-23:18:22.011|56=TW|10=164|
2023/11/13 23:18:52.006171 8=FIX.4.4|9=49|35=0|34=5|49=TW|52=20231113-23:18:52.006|56=ISLD|10=172|
2023/11/13 23:18:52.014764 8=FIX.4.4|9=49|35=0|34=5|49=ISLD|52=20231113-23:18:52.012|56=TW|10=169|
2023/11/13 23:19:22.006845 8=FIX.4.4|9=49|35=0|34=6|49=TW|52=20231113-23:19:22.006|56=ISLD|10=171|
2023/11/13 23:19:22.015937 8=FIX.4.4|9=49|35=0|34=6|49=ISLD|52=20231113-23:19:22.015|56=TW|10=171|
2023/11/13 23:19:52.007860 8=FIX.4.4|9=49|35=0|34=7|49=TW|52=20231113-23:19:52.007|56=ISLD|10=176|
2023/11/13 23:19:52.018050 8=FIX.4.4|9=49|35=0|34=7|49=ISLD|52=20231113-23:19:52.016|56=TW|10=176|
2023/11/13 23:20:22.008216 8=FIX.4.4|9=49|35=0|34=8|49=TW|52=20231113-23:20:22.008|56=ISLD|10=167|
2023/11/13 23:20:22.019066 8=FIX.4.4|9=49|35=0|34=8|49=ISLD|52=20231113-23:20:22.018|56=TW|10=168|
2023/11/13 23:20:52.009108 8=FIX.4.4|9=49|35=0|34=9|49=TW|52=20231113-23:20:52.009|56=ISLD|10=172|
2023/11/13 23:20:52.021121 8=FIX.4.4|9=49|35=0|34=9|49=ISLD|52=20231113-23:20:52.019|56=TW|10=173|
2023/11/13 23:21:22.010144 8=FIX.4.4|9=50|35=0|34=10|49=TW|52=20231113-23:21:22.010|56=ISLD|10=194|
2023/11/13 23:21:22.024053 8=FIX.4.4|9=50|35=0|34=10|49=ISLD|52=20231113-23:21:22.021|56=TW|10=196|
2023/11/13 23:21:52.010737 8=FIX.4.4|9=50|35=0|34=11|49=TW|52=20231113-23:21:52.010|56=ISLD|10=198|
2023/11/13 23:21:52.024852 8=FIX.4.4|9=50|35=0|34=11|49=ISLD|52=20231113-23:21:52.024|56=TW|10=203|
2023/11/13 23:22:22.011877 8=FIX.4.4|9=50|35=0|34=12|49=TW|52=20231113-23:22:22.011|56=ISLD|10=198|
2023/11/13 23:22:22.027433 8=FIX.4.4|9=50|35=0|34=12|49=ISLD|52=20231113-23:22:22.025|56=TW|10=203|
2023/11/13 23:22:52.012465 8=FIX.4.4|9=50|35=0|34=13|49=TW|52=20231113-23:22:52.012|56=ISLD|10=203|
2023/11/13 23:22:52.028678 8=FIX.4.4|9=50|35=0|34=13|49=ISLD|52=20231113-23:22:52.027|56=TW|10=209|
2023/11/13 23:23:22.012615 8=FIX.4.4|9=50|35=0|34=14|49=TW|52=20231113-23:23:22.012|56=ISLD|10=202|
2023/11/13 23:23:22.031099 8=FIX.4.4|9=50|35=0|34=14|49=ISLD|52=20231113-23:23:22.028|56=TW|10=209|
2023/11/13 23:23:52.013738 8=FIX.4.4|9=50|35=0|34=15|49=TW|52=20231113-23:23:52.013|56=ISLD|10=207|
2023/11/13 23:23:52.034080 8=FIX.4.4|9=50|35=0|34=15|49=ISLD|52=20231113-23:23:52.031|56=TW|10=207|
2023/11/13 23:24:22.014531 8=FIX.4.4|9=50|35=0|34=16|49=TW|52=20231113-23:24:22.014|56=ISLD|10=207|
2023/11/13 23:24:22.036479 8=FIX.4.4|9=50|35=0|34=16|49=ISLD|52=20231113-23:24:22.034|56=TW|10=209|
2023/11/13 23:24:52.015705 8=FIX.4.4|9=50|35=0|34=17|49=TW|52=20231113-23:24:52.015|56=ISLD|10=212|
2023/11/13 23:24:52.038243 8=FIX.4.4|9=50|35=0|34=17|49=ISLD|52=20231113-23:24:52.036|56=TW|10=215|
2023/11/13 23:25:22.016855 8=FIX.4.4|9=50|35=0|34=18|49=TW|52=20231113-23:25:22.016|56=ISLD|10=212|
2023/11/13 23:25:22.040358 8=FIX.4.4|9=50|35=0|34=18|49=ISLD|52=20231113-23:25:22.038|56=TW|10=216|
2023/11/13 23:25:52.018021 8=FIX.4.4|9=50|35=0|34=19|49=TW|52=20231113-23:25:52.017|56=ISLD|10=217|
2023/11/13 23:25:52.042621 8=FIX.4.4|9=50|35=0|34=19|49=ISLD|52=20231113-23:25:52.040|56=TW|10=213|
2023/11/13 23:26:22.019267 8=FIX.4.4|9=50|35=0|34=20|49=TW|52=20231113-23:26:22.019|56=ISLD|10=209|
2023/11/13 23:26:22.044601 8=FIX.4.4|9=50|35=0|34=20|49=ISLD|52=20231113-23:26:22.042|56=TW|10=205|
2023/11/13 23:26:52.020090 8=FIX.4.4|9=50|35=0|34=21|49=TW|52=20231113-23:26:52.020|56=ISLD|10=205|
2023/11/13 23:26:52.046511 8=FIX.4.4|9=50|35=0|34=21|49=ISLD|52=20231113-23:26:52.044|56=TW|10=211|
2023/11/13 23:27:22.021076 8=FIX.4.4|9=50|35=0|34=22|49=TW|52=20231113-23:27:22.021|56=ISLD|10=205|
2023/11/13 23:27:22.048600 8=FIX.4.4|9=50|35=0|34=22|49=ISLD|52=20231113-23:27:22.046|56=TW|10=212|
2023/11/13 23:27:52.021973 8=FIX.4.4|9=50|35=0|34=23|49=TW|52=20231113-23:27:52.021|56=ISLD|10=209|
2023/11/13 23:27:52.050214 8=FIX.4.4|9=50|35=0|34=23|49=ISLD|52=20231113-23:27:52.048|56=TW|10=218|
2023/11/13 23:28:22.022908 8=FIX.4.4|9=50|35=0|34=24|49=TW|52=20231113-23:28:22.022|56=ISLD|10=209|
2023/11/13 23:28:22.052485 8=FIX.4.4|9=50|35=0|34=24|49=ISLD|52=20231113-23:28:22.050|56=TW|10=210|
2023/11/13 23:28:52.024050 8=FIX.4.4|9=50|35=0|34=25|49=TW|52=20231113-23:28:52.024|56=ISLD|10=215|
2023/11/13 23:28:52.054016 8=FIX.4.4|9=50|35=0|34=25|49=ISLD|52=20231113-23:28:52.052|56=TW|10=216|
2023/11/13 23:29:22.024848 8=FIX.4.4|9=50|35=0|34=26|49=TW|52=20231113-23:29:22.024|56=ISLD|10=214|
2023/11/13 23:29:22.056448 8=FIX.4.4|9=50|35=0|34=26|49=ISLD|52=20231113-23:29:22.054|56=TW|10=217|
2023/11/13 23:29:52.025965 8=FIX.4.4|9=50|35=0|34=27|49=TW|52=20231113-23:29:52.025|56=ISLD|10=219|
2023/11/13 23:29:52.057532 8=FIX.4.4|9=50|35=0|34=27|49=ISLD|52=20231113-23:29:52.056|56=TW|10=223|
2023/11/13 23:30:22.026738 8=FIX.4.4|9=50|35=0|34=28|49=TW|52=20231113-23:30:22.026|56=ISLD|10=210|
2023/11/13 23:30:22.060010 8=FIX.4.4|9=50|35=0|34=28|49=ISLD|52=20231113-23:30:22.058|56=TW|10=215|
2023/11/13 23:30:52.027776 8=FIX.4.4|9=50|35=0|34=29|49=TW|52=20231113-23:30:52.027|56=ISLD|10=215|
2023/11/13 23:30:52.063205 8=FIX.4.4|9=50|35=0|34=29|49=ISLD|52=20231113-23:30:52.060|56=TW|10=212|
2023/11/13 23:31:22.028130 8=FIX.4.4|9=50|35=0|34=30|49=TW|52=20231113-23:31:22.028|56=ISLD|10=206|
2023/11/13 23:31:22.065739 8=FIX.4.4|9=50|35=0|34=30|49=ISLD|52=20231113-23:31:22.063|56=TW|10=205|
2023/11/13 23:31:52.029134 8=FIX.4.4|9=50|35=0|34=31|49=TW|52=20231113-23:31:52.029|56=ISLD|10=211|
2023/11/13 23:31:52.067796 8=FIX.4.4|9=50|35=0|34=31|49=ISLD|52=20231113-23:31:52.065|56=TW|10=211|
2023/11/13 23:32:22.030255 8=FIX.4.4|9=50|35=0|34=32|49=TW|52=20231113-23:32:22.030|56=ISLD|10=202|
2023/11/13 23:32:22.069927 8=FIX.4.4|9=50|35=0|34=32|49=ISLD|52=20231113-23:32:22.068|56=TW|10=213|
2023/11/13 23:32:52.031384 8=FIX.4.4|9=50|35=0|34=33|49=TW|52=20231113-23:32:52.031|56=ISLD|10=207|
2023/11/13 23:32:52.071886 8=FIX.4.4|9=50|35=0|34=33|49=ISLD|52=20231113-23:32:52.070|56=TW|10=210|
2023/11/13 23:33:22.031569 8=FIX.4.4|9=50|35=0|34=34|49=TW|52=20231113-23:33:22.031|56=ISLD|10=206|
2023/11/13 23:33:22.074891 8=FIX.4.4|9=50|35=0|34=34|49=ISLD|52=20231113-23:33:22.072|56=TW|10=211|
2023/11/13 23:33:52.032045 8=FIX.4.4|9=50|35=0|34=35|49=TW|52=20231113-23:33:52.032|56=ISLD|10=211|
2023/11/13 23:33:52.077754 8=FIX.4.4|9=50|35=0|34=35|49=ISLD|52=20231113-23:33:52.075|56=TW|10=218|
2023/11/13 23:34:22.032993 8=FIX.4.4|9=50|35=0|34=36|49=TW|52=20231113-23:34:22.032|56=ISLD|10=210|
2023/11/13 23:34:22.078438 8=FIX.4.4|9=50|35=0|34=36|49=ISLD|52=20231113-23:34:22.077|56=TW|10=219|
2023/11/13 23:34:52.033853 8=FIX.4.4|9=50|35=0|34=37|49=TW|52=20231113-23:34:52.033|56=ISLD|10=215|
2023/11/13 23:34:52.080228 8=FIX.4.4|9=50|35=0|34=37|49=ISLD|52=20231113-23:34:52.078|56=TW|10=224|
2023/11/13 23:35:22.034298 8=FIX.4.4|9=50|35=0|34=38|49=TW|52=20231113-23:35:22.034|56=ISLD|10=215|
2023/11/13 23:35:22.082560 8=FIX.4.4|9=50|35=0|34=38|49=ISLD|52=20231113-23:35:22.080|56=TW|10=216|
2023/11/13 23:35:52.035519 8=FIX.4.4|9=50|35=0|34=39|49=TW|52=20231113-23:35:52.035|56=ISLD|10=220|
2023/11/13 23:35:52.085303 8=FIX.4.4|9=50|35=0|34=39|49=ISLD|52=20231113-23:35:52.083|56=TW|10=223|
2023/11/13 23:36:22.036737 8=FIX.4.4|9=50|35=0|34=40|49=TW|52=20231113-23:36:22.036|56=ISLD|10=211|
2023/11/13 23:36:22.087473 8=FIX.4.4|9=50|35=0|34=40|49=ISLD|52=20231113-23:36:22.085|56=TW|10=215|
2023/11/13 23:36:52.037505 8=FIX.4.4|9=50|35=0|34=41|49=TW|52=20231113-23:36:52.037|56=ISLD|10=216|
2023/11/13 23:36:52.090110 8=FIX.4.4|9=50|35=0|34=41|49=ISLD|52=20231113-23:36:52.088|56=TW|10=222|
2023/11/13 23:37:22.037843 8=FIX.4.4|9=50|35=0|34=42|49=TW|52=20231113-23:37:22.037|56=ISLD|10=215|
2023/11/13 23:37:22.093072 8=FIX.4.4|9=50|35=0|34=42|49=ISLD|52=20231113-23:37:22.090|56=TW|10=214|
2023/11/13 23:37:52.038036 8=FIX.4.4|9=50|35=0|34=43|49=TW|52=20231113-23:37:52.037|56=ISLD|10=219|
2023/11/13 23:37:52.095265 8=FIX.4.4|9=50|35=0|34=43|49=ISLD|52=20231113-23:37:52.093|56=TW|10=221|
2023/11/13 23:38:22.038858 8=FIX.4.4|9=50|35=0|34=44|49=TW|52=20231113-23:38:22.038|56=ISLD|10=219|
2023/11/13 23:38:22.097296 8=FIX.4.4|9=50|35=0|34=44|49=ISLD|52=20231113-23:38:22.095|56=TW|10=222|
2023/11/13 23:38:52.039224 8=FIX.4.4|9=50|35=0|34=45|49=TW|52=20231113-23:38:52.039|56=ISLD|10=224|
2023/11/13 23:38:52.099742 8=FIX.4.4|9=50|35=0|34=45|49=ISLD|52=20231113-23:38:52.097|56=TW|10=228|
2023/11/13 23:39:22.040340 8=FIX.4.4|9=50|35=0|34=46|49=TW|52=20231113-23:39:22.040|56=ISLD|10=215|
2023/11/13 23:39:22.102119 8=FIX.4.4|9=50|35=0|34=46|49=ISLD|52=20231113-23:39:22.100|56=TW|10=212|
2023/11/13 23:39:52.040730 8=FIX.4.4|9=50|35=0|34=47|49=TW|52=20231113-23:39:52.040|56=ISLD|10=219|
2023/11/13 23:39:52.104465 8=FIX.4.4|9=50|35=0|34=47|49=ISLD|52=20231113-23:39:52.102|56=TW|10=218|
2023/11/13 23:40:22.042046 8=FIX.4.4|9=50|35=0|34=48|49=TW|52=20231113-23:40:22.041|56=ISLD|10=210|
2023/11/13 23:40:22.106720 8=FIX.4.4|9=50|35=0|34=48|49=ISLD|52=20231113-23:40:22.104|56=TW|10=210|
2023/11/13 23:40:52.042263 8=FIX.4.4|9=50|35=0|34=49|49=TW|52=20231113-23:40:52.042|56=ISLD|10=215|
2023/11/13 23:40:52.107295 8=FIX.4.4|9=50|35=0|34=49|49=ISLD|52=20231113-23:40:52.106|56=TW|10=216|
2023/11/13 23:41:22.043249 8=FIX.4.4|9=50|35=0|34=50|49=TW|52=20231113-23:41:22.043|56=ISLD|10=206|
2023/11/13 23:41:22.109838 8=FIX.4.4|9=50|35=0|34=50|49=ISLD|52=20231113-23:41:22.108|56=TW|10=208|
2023/11/13 23:41:52.043641 8=FIX.4.4|9=50|35=0|34=51|49=TW|52=20231113-23:41:52.043|56=ISLD|10=210|
2023/11/13 23:41:52.113093 8=FIX.4.4|9=50|35=0|34=51|49=ISLD|52=20231113-23:41:52.110|56=TW|10=205|
2023/11/13 23:42:22.044200 8=FIX.4.4|9=50|35=0|34=52|49=TW|52=20231113-23:42:22.044|56=ISLD|10=210|
2023/11/13 23:42:22.115493 8=FIX.4.4|9=50|35=0|34=52|49=ISLD|52=20231113-23:42:22.113|56=TW|10=207|
2023/11/13 23:42:52.044823 8=FIX.4.4|9=50|35=0|34=53|49=TW|52=20231113-23:42:52.044|56=ISLD|10=214|
2023/11/13 23:42:52.118243 8=FIX.4.4|9=50|35=0|34=53|49=ISLD|52=20231113-23:42:52.115|56=TW|10=213|
2023/11/13 23:43:22.045654 8=FIX.4.4|9=50|35=0|34=54|49=TW|52=20231113-23:43:22.045|56=ISLD|10=214|
2023/11/13 23:43:22.120136 8=FIX.4.4|9=50|35=0|34=54|49=ISLD|52=20231113-23:43:22.118|56=TW|10=215|
2023/11/13 23:43:52.046979 8=FIX.4.4|9=50|35=0|34=55|49=TW|52=20231113-23:43:52.046|56=ISLD|10=219|
2023/11/13 23:43:52.123002 8=FIX.4.4|9=50|35=0|34=55|49=ISLD|52=20231113-23:43:52.120|56=TW|10=212|
2023/11/13 23:44:22.047750 8=FIX.4.4|9=50|35=0|34=56|49=TW|52=20231113-23:44:22.047|56=ISLD|10=219|
2023/11/13 23:44:22.125837 8=FIX.4.4|9=50|35=0|34=56|49=ISLD|52=20231113-23:44:22.123|56=TW|10=214|
2023/11/13 23:44:52.048537 8=FIX.4.4|9=50|35=0|34=57|49=TW|52=20231113-23:44:52.048|56=ISLD|10=224|
2023/11/13 23:44:52.127857 8=FIX.4.4|9=50|35=0|34=57|49=ISLD|52=20231113-23:44:52.126|56=TW|10=221|
2023/11/13 23:45:22.049326 8=FIX.4.4|9=50|35=0|34=58|49=TW|52=20231113-23:45:22.049|56=ISLD|10=224|
2023/11/13 23:45:22.129616 8=FIX.4.4|9=50|35=0|34=58|49=ISLD|52=20231113-23:45:22.128|56=TW|10=222|
2023/11/13 23:45:52.050540 8=FIX.4.4|9=50|35=0|34=59|49=TW|52=20231113-23:45:52.050|56=ISLD|10=220|
2023/11/13 23:45:52.131996 8=FIX.4.4|9=50|35=0|34=59|49=ISLD|52=20231113-23:45:52.130|56=TW|10=219|
2023/11/13 23:46:22.051094 8=FIX.4.4|9=50|35=0|34=60|49=TW|52=20231113-23:46:22.051|56=ISLD|10=211|
2023/11/13 23:46:22.135446 8=FIX.4.4|9=50|35=0|34=60|49=ISLD|52=20231113-23:46:22.132|56=TW|10=211|
2023/11/13 23:46:52.051750 8=FIX.4.4|9=50|35=0|34=61|49=TW|52=20231113-23:46:52.051|56=ISLD|10=215|
2023/11/13 23:46:52.138051 8=FIX.4.4|9=50|35=0|34=61|49=ISLD|52=20231113-23:46:52.136|56=TW|10=219|
2023/11/13 23:47:22.052692 8=FIX.4.4|9=50|35=0|34=62|49=TW|52=20231113-23:47:22.052|56=ISLD|10=215|
2023/11/13 23:47:22.139366 8=FIX.4.4|9=50|35=0|34=62|49=ISLD|52=20231113-23:47:22.138|56=TW|10=220|
2023/11/13 23:47:52.053401 8=FIX.4.4|9=50|35=0|34=63|49=TW|52=20231113-23:47:52.053|56=ISLD|10=220|
2023/11/13 23:47:52.140770 8=FIX.4.4|9=50|35=0|34=63|49=ISLD|52=20231113-23:47:52.139|56=TW|10=225|
2023/11/13 23:48:22.053814 8=FIX.4.4|9=50|35=0|34=64|49=TW|52=20231113-23:48:22.053|56=ISLD|10=219|
2023/11/13 23:48:22.144006 8=FIX.4.4|9=50|35=0|34=64|49=ISLD|52=20231113-23:48:22.141|56=TW|10=217|
2023/11/13 23:48:52.054993 8=FIX.4.4|9=50|35=0|34=65|49=TW|52=20231113-23:48:52.054|56=ISLD|10=224|
2023/11/13 23:48:52.146251 8=FIX.4.4|9=50|35=0|34=65|49=ISLD|52=20231113-23:48:52.144|56=TW|10=224|
2023/11/13 23:49:22.056193 8=FIX.4.4|9=50|35=0|34=66|49=TW|52=20231113-23:49:22.056|56=ISLD|10=225|
2023/11/13 23:49:22.147352 8=FIX.4.4|9=50|35=0|34=66|49=ISLD|52=20231113-23:49:22.146|56=TW|10=225|
2023/11/13 23:49:52.057265 8=FIX.4.4|9=50|35=0|34=67|49=TW|52=20231113-23:49:52.057|56=ISLD|10=230|
2023/11/13 23:49:52.149714 8=FIX.4.4|9=50|35=0|34=67|49=ISLD|52=20231113-23:49:52.148|56=TW|10=231|
2023/11/13 23:50:22.057898 8=FIX.4.4|9=50|35=0|34=68|49=TW|52=20231113-23:50:22.057|56=ISLD|10=220|
2023/11/13 23:50:22.152228 8=FIX.4.4|9=50|35=0|34=68|49=ISLD|52=20231113-23:50:22.150|56=TW|10=214|
2023/11/13 23:50:52.058816 8=FIX.4.4|9=50|35=0|34=69|49=TW|52=20231113-23:50:52.058|56=ISLD|10=225|
2023/11/13 23:50:52.154402 8=FIX.4.4|9=50|35=0|34=69|49=ISLD|52=20231113-23:50:52.152|56=TW|10=220|
2023/11/13 23:51:22.059482 8=FIX.4.4|9=50|35=0|34=70|49=TW|52=20231113-23:51:22.059|56=ISLD|10=216|
2023/11/13 23:51:22.157015 8=FIX.4.4|9=50|35=0|34=70|49=ISLD|52=20231113-23:51:22.155|56=TW|10=213|
2023/11/13 23:51:52.060561 8=FIX.4.4|9=50|35=0|34=71|49=TW|52=20231113-23:51:52.060|56=ISLD|10=212|
2023/11/13 23:51:52.158931 8=FIX.4.4|9=50|35=0|34=71|49=ISLD|52=20231113-23:51:52.157|56=TW|10=219|
2023/11/14 05:13:00.890732 8=FIX.4.4|9=50|35=0|34=72|49=TW|52=20231114-05:13:00.890|56=ISLD|10=216|
2023/11/14 05:13:00.990066 8=FIX.4.4|9=50|35=0|34=72|49=ISLD|52=20231114-05:13:00.988|56=TW|10=224|
2023/11/14 05:13:30.891375 8=FIX.4.4|9=50|35=0|34=73|49=TW|52=20231114-05:13:30.891|56=ISLD|10=221|
2023/11/14 05:13:30.991596 8=FIX.4.4|9=50|35=0|34=73|49=ISLD|52=20231114-05:13:30.989|56=TW|10=229|
2023/11/14 05:14:00.891822 8=FIX.4.4|9=50|35=0|34=74|49=TW|52=20231114-05:14:00.891|56=ISLD|10=220|
2023/11/14 05:14:00.993168 8=FIX.4.4|9=50|35=0|34=74|49=ISLD|52=20231114-05:14:00.991|56=TW|10=221|
2023/11/14 05:14:30.892784 8=FIX.4.4|9=50|35=0|34=75|49=TW|52=20231114-05:14:30.892|56=ISLD|10=225|
2023/11/14 05:14:30.995176 8=FIX.4.4|9=50|35=0|34=75|49=ISLD|52=20231114-05:14:30.993|56=TW|10=227|
2023/11/14 05:15:00.893922 8=FIX.4.4|9=50|35=0|34=76|49=TW|52=20231114-05:15:00.893|56=ISLD|10=225|
2023/11/14 05:15:00.997558 8=FIX.4.4|9=50|35=0|34=76|49=ISLD|52=20231114-05:15:00.995|56=TW|10=228|
2023/11/14 05:15:30.894969 8=FIX.4.4|9=50|35=0|34=77|49=TW|52=20231114-05:15:30.894|56=ISLD|10=230|
2023/11/14 05:15:31.000620 8=FIX.4.4|9=50|35=0|34=77|49=ISLD|52=20231114-05:15:30.997|56=TW|10=234|
2023/11/14 05:16:00.895882 8=FIX.4.4|9=50|35=0|34=78|49=TW|52=20231114-05:16:00.895|56=ISLD|10=230|
2023/11/14 05:16:01.002223 8=FIX.4.4|9=50|35=0|34=78|49=ISLD|52=20231114-05:16:01.000|56=TW|10=209|
2023/11/14 05:16:30.896570 8=FIX.4.4|9=50|35=0|34=79|49=TW|52=20231114-05:16:30.896|56=ISLD|10=235|
2023/11/14 05:16:31.004897 8=FIX.4.4|9=50|35=0|34=79|49=ISLD|52=20231114-05:16:31.002|56=TW|10=215|
2023/11/14 05:17:00.897405 8=FIX.4.4|9=50|35=0|34=80|49=TW|52=20231114-05:17:00.897|56=ISLD|10=226|
2023/11/14 05:17:01.010947 8=FIX.4.4|9=50|35=0|34=80|49=ISLD|52=20231114-05:17:01.005|56=TW|10=208|
2023/11/14 05:17:30.898200 8=FIX.4.4|9=50|35=0|34=81|49=TW|52=20231114-05:17:30.898|56=ISLD|10=231|
2023/11/14 05:17:31.012632 8=FIX.4.4|9=50|35=0|34=81|49=ISLD|52=20231114-05:17:31.010|56=TW|10=208|
2023/11/14 05:18:00.899280 8=FIX.4.4|9=50|35=0|34=82|49=TW|52=20231114-05:18:00.899|56=ISLD|10=231|
2023/11/14 05:18:01.014741 8=FIX.4.4|9=50|35=0|34=82|49=ISLD|52=20231114-05:18:01.013|56=TW|10=210|
2023/11/14 05:18:30.900594 8=FIX.4.4|9=50|35=0|34=83|49=TW|52=20231114-05:18:30.900|56=ISLD|10=218|
2023/11/14 05:18:31.017035 8=FIX.4.4|9=50|35=0|34=83|49=ISLD|52=20231114-05:18:31.015|56=TW|10=216|
2023/11/14 05:19:00.901382 8=FIX.4.4|9=50|35=0|34=84|49=TW|52=20231114-05:19:00.901|56=ISLD|10=218|
2023/11/14 05:19:01.020927 8=FIX.4.4|9=50|35=0|34=84|49=ISLD|52=20231114-05:19:01.017|56=TW|10=217|
2023/11/14 05:19:30.901765 8=FIX.4.4|9=50|35=0|34=85|49=TW|52=20231114-05:19:30.901|56=ISLD|10=222|
2023/11/14 05:19:31.023246 8=FIX.4.4|9=50|35=0|34=85|49=ISLD|52=20231114-05:19:31.021|56=TW|10=216|
2023/11/14 05:20:00.902622 8=FIX.4.4|9=50|35=0|34=86|49=TW|52=20231114-05:20:00.902|56=ISLD|10=213|
2023/11/14 05:20:01.024969 8=FIX.4.4|9=50|35=0|34=86|49=ISLD|52=20231114-05:20:01.023|56=TW|10=208|
2023/11/14 05:20:30.903664 8=FIX.4.4|9=50|35=0|34=87|49=TW|52=20231114-05:20:30.903|56=ISLD|10=218|
2023/11/14 05:20:31.028275 8=FIX.4.4|9=50|35=0|34=87|49=ISLD|52=20231114-05:20:31.025|56=TW|10=214|
2023/11/14 05:21:00.904999 8=FIX.4.4|9=50|35=0|34=88|49=TW|52=20231114-05:21:00.904|56=ISLD|10=218|
2023/11/14 05:21:01.031415 8=FIX.4.4|9=50|35=0|34=88|49=ISLD|52=20231114-05:21:01.028|56=TW|10=216|
2023/11/14 05:21:30.905296 8=FIX.4.4|9=50|35=0|34=89|49=TW|52=20231114-05:21:30.905|56=ISLD|10=223|
2023/11/14 05:21:31.033793 8=FIX.4.4|9=50|35=0|34=89|49=ISLD|52=20231114-05:21:31.032|56=TW|10=215|
2023/11/14 05:22:00.905578 8=FIX.4.4|9=50|35=0|34=90|49=TW|52=20231114-05:22:00.905|56=ISLD|10=213|
2023/11/14 05:22:01.036086 8=FIX.4.4|9=50|35=0|34=90|49=ISLD|52=20231114-05:22:01.034|56=TW|10=207|
2023/11/14 05:22:30.905940 8=FIX.4.4|9=50|35=0|34=91|49=TW|52=20231114-05:22:30.905|56=ISLD|10=217|
2023/11/14 05:22:31.039162 8=FIX.4.4|9=50|35=0|34=91|49=ISLD|52=20231114-05:22:31.036|56=TW|10=213|
2023/11/14 05:23:00.907152 8=FIX.4.4|9=50|35=0|34=92|49=TW|52=20231114-05:23:00.907|56=ISLD|10=218|
2023/11/14 05:23:01.042009 8=FIX.4.4|9=50|35=0|34=92|49=ISLD|52=20231114-05:23:01.039|56=TW|10=215|
2023/11/14 05:23:30.908347 8=FIX.4.4|9=50|35=0|34=93|49=TW|52=20231114-05:23:30.908|56=ISLD|10=223|
2023/11/14 05:23:31.043656 8=FIX.4.4|9=50|35=0|34=93|49=ISLD|52=20231114-05:23:31.042|56=TW|10=213|
2023/11/14 05:24:00.909180 8=FIX.4.4|9=50|35=0|34=94|49=TW|52=20231114-05:24:00.909|56=ISLD|10=223|
2023/11/14 05:24:01.045812 8=FIX.4.4|9=50|35=0|34=94|49=ISLD|52=20231114-05:24:01.043|56=TW|10=213|
2023/11/14 05:24:30.910308 8=FIX.4.4|9=50|35=0|34=95|49=TW|52=20231114-05:24:30.910|56=ISLD|10=219|
2023/11/14 05:24:31.048044 8=FIX.4.4|9=50|35=0|34=95|49=ISLD|52=20231114-05:24:31.046|56=TW|10=220|
2023/11/14 05:25:00.911764 8=FIX.4.4|9=50|35=0|34=96|49=TW|52=20231114-05:25:00.911|56=ISLD|10=219|
2023/11/14 05:25:01.050986 8=FIX.4.4|9=50|35=0|34=96|49=ISLD|52=20231114-05:25:01.048|56=TW|10=221|
2023/11/14 05:25:30.911994 8=FIX.4.4|9=50|35=0|34=97|49=TW|52=20231114-05:25:30.911|56=ISLD|10=223|
2023/11/14 05:25:31.053299 8=FIX.4.4|9=50|35=0|34=97|49=ISLD|52=20231114-05:25:31.051|56=TW|10=219|
2023/11/14 05:26:00.912300 8=FIX.4.4|9=50|35=0|34=98|49=TW|52=20231114-05:26:00.912|56=ISLD|10=223|
2023/11/14 05:26:01.055814 8=FIX.4.4|9=50|35=0|34=98|49=ISLD|52=20231114-05:26:01.054|56=TW|10=221|
2023/11/14 05:26:30.913006 8=FIX.4.4|9=50|35=0|34=99|49=TW|52=20231114-05:26:30.912|56=ISLD|10=227|
2023/11/14 05:26:31.058615 8=FIX.4.4|9=50|35=0|34=99|49=ISLD|52=20231114-05:26:31.055|56=TW|10=226|
2023/11/14 05:27:00.914058 8=FIX.4.4|9=51|35=0|34=100|49=TW|52=20231114-05:27:00.914|56=ISLD|10=003|
2023/11/14 05:27:01.061371 8=FIX.4.4|9=51|35=0|34=100|49=ISLD|52=20231114-05:27:01.059|56=TW|10=004|
2023/11/14 05:27:30.914358 8=FIX.4.4|9=51|35=0|34=101|49=TW|52=20231114-05:27:30.914|56=ISLD|10=007|
2023/11/14 05:27:31.064535 8=FIX.4.4|9=51|35=0|34=101|49=ISLD|52=20231114-05:27:31.062|56=TW|10=002|
2023/11/14 05:28:00.915386 8=FIX.4.4|9=51|35=0|34=102|49=TW|52=20231114-05:28:00.915|56=ISLD|10=007|
2023/11/14 05:28:01.067246 8=FIX.4.4|9=51|35=0|34=102|49=ISLD|52=20231114-05:28:01.065|56=TW|10=004|
2023/11/14 05:28:30.915870 8=FIX.4.4|9=51|35=0|34=103|49=TW|52=20231114-05:28:30.915|56=ISLD|10=011|
2023/11/14 05:28:31.069403 8=FIX.4.4|9=51|35=0|34=103|49=ISLD|52=20231114-05:28:31.067|56=TW|10=010|
2023/11/14 05:29:00.917030 8=FIX.4.4|9=51|35=0|34=104|49=TW|52=20231114-05:29:00.916|56=ISLD|10=011|
2023/11/14 05:29:01.072359 8=FIX.4.4|9=51|35=0|34=104|49=ISLD|52=20231114-05:29:01.069|56=TW|10=011|
2023/11/14 05:29:30.917233 8=FIX.4.4|9=51|35=0|34=105|49=TW|52=20231114-05:29:30.917|56=ISLD|10=016|
2023/11/14 05:29:31.075123 8=FIX.4.4|9=51|35=0|34=105|49=ISLD|52=20231114-05:29:31.073|56=TW|10=010|
2023/11/14 05:30:00.918301 8=FIX.4.4|9=51|35=0|34=106|49=TW|52=20231114-05:30:00.918|56=ISLD|10=007|
2023/11/14 05:30:01.077679 8=FIX.4.4|9=51|35=0|34=106|49=ISLD|52=20231114-05:30:01.076|56=TW|10=003|
2023/11/14 05:30:30.918773 8=FIX.4.4|9=51|35=0|34=107|49=TW|52=20231114-05:30:30.918|56=ISLD|10=011|
2023/11/14 05:30:31.080215 8=FIX.4.4|9=51|35=0|34=107|49=ISLD|52=20231114-05:30:31.078|56=TW|10=009|
2023/11/14 05:31:00.919596 8=FIX.4.4|9=51|35=0|34=108|49=TW|52=20231114-05:31:00.919|56=ISLD|10=011|
2023/11/14 05:31:01.083068 8=FIX.4.4|9=51|35=0|34=108|49=ISLD|52=20231114-05:31:01.080|56=TW|10=001|
2023/11/14 05:31:30.920138 8=FIX.4.4|9=51|35=0|34=109|49=TW|52=20231114-05:31:30.920|56=ISLD|10=007|
2023/11/14 05:31:31.084749 8=FIX.4.4|9=51|35=0|34=109|49=ISLD|52=20231114-05:31:31.082|56=TW|10=007|
2023/11/14 05:32:00.920965 8=FIX.4.4|9=51|35=0|34=110|49=TW|52=20231114-05:32:00.920|56=ISLD|10=253|
2023/11/14 05:32:01.087510 8=FIX.4.4|9=51|35=0|34=110|49=ISLD|52=20231114-05:32:01.084|56=TW|10=255|
2023/11/14 05:32:30.921201 8=FIX.4.4|9=51|35=0|34=111|49=TW|52=20231114-05:32:30.921|56=ISLD|10=002|
2023/11/14 05:32:31.089815 8=FIX.4.4|9=51|35=0|34=111|49=ISLD|52=20231114-05:32:31.088|56=TW|10=007|
2023/11/14 05:33:00.921845 8=FIX.4.4|9=51|35=0|34=112|49=TW|52=20231114-05:33:00.921|56=ISLD|10=001|
2023/11/14 05:33:01.093548 8=FIX.4.4|9=51|35=0|34=112|49=ISLD|52=20231114-05:33:01.089|56=TW|10=007|
2023/11/14 05:33:30.922899 8=FIX.4.4|9=51|35=0|34=113|49=TW|52=20231114-05:33:30.922|56=ISLD|10=006|
2023/11/14 05:33:31.095298 8=FIX.4.4|9=51|35=0|34=113|49=ISLD|52=20231114-05:33:31.093|56=TW|10=006|
2023/11/14 05:34:00.924081 8=FIX.4.4|9=51|35=0|34=114|49=TW|52=20231114-05:34:00.924|56=ISLD|10=007|
2023/11/14 05:34:01.097609 8=FIX.4.4|9=51|35=0|34=114|49=ISLD|52=20231114-05:34:01.095|56=TW|10=007|
2023/11/14 05:34:30.924830 8=FIX.4.4|9=51|35=0|34=115|49=TW|52=20231114-05:34:30.924|56=ISLD|10=011|
2023/11/14 05:34:31.099133 8=FIX.4.4|9=51|35=0|34=115|49=ISLD|52=20231114-05:34:31.097|56=TW|10=013|
2023/11/14 05:35:00.925759 8=FIX.4.4|9=51|35=0|34=116|49=TW|52=20231114-05:35:00.925|56=ISLD|10=011|
2023/11/14 05:35:01.102577 8=FIX.4.4|9=51|35=0|34=116|49=ISLD|52=20231114-05:35:01.099|56=TW|10=014|
2023/11/14 05:35:30.926848 8=FIX.4.4|9=51|35=0|34=117|49=TW|52=20231114-05:35:30.926|56=ISLD|10=016|
2023/11/14 05:35:31.105718 8=FIX.4.4|9=51|35=0|34=117|49=ISLD|52=20231114-05:35:31.103|56=TW|10=004|
2023/11/14 05:36:00.927430 8=FIX.4.4|9=51|35=0|34=118|49=TW|52=20231114-05:36:00.927|56=ISLD|10=016|
2023/11/14 05:36:01.107878 8=FIX.4.4|9=51|35=0|34=118|49=ISLD|52=20231114-05:36:01.106|56=TW|10=006|
2023/11/14 05:36:30.927730 8=FIX.4.4|9=51|35=0|34=119|49=TW|52=20231114-05:36:30.927|56=ISLD|10=020|
2023/11/14 05:36:31.110296 8=FIX.4.4|9=51|35=0|34=119|49=ISLD|52=20231114-05:36:31.108|56=TW|10=012|
2023/11/14 05:37:00.928848 8=FIX.4.4|9=51|35=0|34=120|49=TW|52=20231114-05:37:00.928|56=ISLD|10=011|
2023/11/14 05:37:01.111498 8=FIX.4.4|9=51|35=0|34=120|49=ISLD|52=20231114-05:37:01.110|56=TW|10=251|
2023/11/14 05:37:30.929124 8=FIX.4.4|9=51|35=0|34=121|49=TW|52=20231114-05:37:30.929|56=ISLD|10=016|
2023/11/14 05:37:31.113565 8=FIX.4.4|9=51|35=0|34=121|49=ISLD|52=20231114-05:37:31.111|56=TW|10=000|
2023/11/14 05:38:00.930174 8=FIX.4.4|9=51|35=0|34=122|49=TW|52=20231114-05:38:00.930|56=ISLD|10=007|
2023/11/14 05:38:01.116882 8=FIX.4.4|9=51|35=0|34=122|49=ISLD|52=20231114-05:38:01.114|56=TW|10=002|
2023/11/14 05:38:30.930682 8=FIX.4.4|9=51|35=0|34=123|49=TW|52=20231114-05:38:30.930|56=ISLD|10=011|
2023/11/14 05:38:31.118286 8=FIX.4.4|9=51|35=0|34=123|49=ISLD|52=20231114-05:38:31.117|56=TW|10=009|
2023/11/14 05:39:00.931790 8=FIX.4.4|9=51|35=0|34=124|49=TW|52=20231114-05:39:00.931|56=ISLD|10=011|
2023/11/14 05:39:01.122208 8=FIX.4.4|9=51|35=0|34=124|49=ISLD|52=20231114-05:39:01.118|56=TW|10=009|
2023/11/14 05:39:30.932623 8=FIX.4.4|9=51|35=0|34=125|49=TW|52=20231114-05:39:30.932|56=ISLD|10=016|
2023/11/14 05:39:31.123966 8=FIX.4.4|9=51|35=0|34=125|49=ISLD|52=20231114-05:39:31.122|56=TW|10=008|
2023/11/14 05:40:00.933254 8=FIX.4.4|9=51|35=0|34=126|49=TW|52=20231114-05:40:00.933|56=ISLD|10=007|
2023/11/14 05:40:01.125890 8=FIX.4.4|9=51|35=0|34=126|49=ISLD|52=20231114-05:40:01.124|56=TW|10=000|
2023/11/14 05:40:30.933693 8=FIX.4.4|9=51|35=0|34=127|49=TW|52=20231114-05:40:30.933|56=ISLD|10=011|
2023/11/14 05:40:31.128166 8=FIX.4.4|9=51|35=0|34=127|49=ISLD|52=20231114-05:40:31.126|56=TW|10=006|
2023/11/14 05:41:00.934373 8=FIX.4.4|9=51|35=0|34=128|49=TW|52=20231114-05:41:00.934|56=ISLD|10=011|
2023/11/14 05:41:01.131163 8=FIX.4.4|9=51|35=0|34=128|49=ISLD|52=20231114-05:41:01.128|56=TW|10=007|
2023/11/14 05:41:30.935660 8=FIX.4.4|9=51|35=0|34=129|49=TW|52=20231114-05:41:30.935|56=ISLD|10=016|
2023/11/14 05:41:31.133242 8=FIX.4.4|9=51|35=0|34=129|49=ISLD|52=20231114-05:41:31.131|56=TW|10=005|
2023/11/14 05:42:00.936627 8=FIX.4.4|9=51|35=0|34=130|49=TW|52=20231114-05:42:00.936|56=ISLD|10=007|
2023/11/14 05:42:01.135102 8=FIX.4.4|9=51|35=0|34=130|49=ISLD|52=20231114-05:42:01.133|56=TW|10=253|
2023/11/14 05:42:30.937315 8=FIX.4.4|9=51|35=0|34=131|49=TW|52=20231114-05:42:30.937|56=ISLD|10=012|
2023/11/14 05:42:31.136800 8=FIX.4.4|9=51|35=0|34=131|49=ISLD|52=20231114-05:42:31.135|56=TW|10=003|
2023/11/14 05:43:00.938247 8=FIX.4.4|9=51|35=0|34=132|49=TW|52=20231114-05:43:00.938|56=ISLD|10=012|
2023/11/14 05:43:01.140514 8=FIX.4.4|9=51|35=0|34=132|49=ISLD|52=20231114-05:43:01.136|56=TW|10=003|
2023/11/14 05:43:30.939414 8=FIX.4.4|9=51|35=0|34=133|49=TW|52=20231114-05:43:30.939|56=ISLD|10=017|
2023/11/14 05:43:31.143126 8=FIX.4.4|9=51|35=0|34=133|49=ISLD|52=20231114-05:43:31.141|56=TW|10=003|
2023/11/14 05:44:00.940689 8=FIX.4.4|9=51|35=0|34=134|49=TW|52=20231114-05:44:00.940|56=ISLD|10=008|
2023/11/14 05:44:01.145298 8=FIX.4.4|9=51|35=0|34=134|49=ISLD|52=20231114-05:44:01.143|56=TW|10=004|
2023/11/14 05:44:30.940943 8=FIX.4.4|9=51|35=0|34=135|49=TW|52=20231114-05:44:30.940|56=ISLD|10=012|
2023/11/14 05:44:31.147455 8=FIX.4.4|9=51|35=0|34=135|49=ISLD|52=20231114-05:44:31.145|56=TW|10=010|
2023/11/14 05:45:00.942013 8=FIX.4.4|9=51|35=0|34=136|49=TW|52=20231114-05:45:00.941|56=ISLD|10=012|
2023/11/14 05:45:01.150512 8=FIX.4.4|9=51|35=0|34=136|49=ISLD|52=20231114-05:45:01.147|56=TW|10=011|
2023/11/14 05:45:30.942254 8=FIX.4.4|9=51|35=0|34=137|49=TW|52=20231114-05:45:30.942|56=ISLD|10=017|
2023/11/14 05:45:31.152799 8=FIX.4.4|9=51|35=0|34=137|49=ISLD|52=20231114-05:45:31.151|56=TW|10=010|
2023/11/14 05:46:00.942470 8=FIX.4.4|9=51|35=0|34=138|49=TW|52=20231114-05:46:00.942|56=ISLD|10=016|
2023/11/14 05:46:01.155060 8=FIX.4.4|9=51|35=0|34=138|49=ISLD|52=20231114-05:46:01.153|56=TW|10=011|
2023/11/14 05:46:30.943447 8=FIX.4.4|9=51|35=0|34=139|49=TW|52=20231114-05:46:30.943|56=ISLD|10=021|
2023/11/14 05:46:31.157095 8=FIX.4.4|9=51|35=0|34=139|49=ISLD|52=20231114-05:46:31.155|56=TW|10=017|
2023/11/14 05:47:00.944218 8=FIX.4.4|9=51|35=0|34=140|49=TW|52=20231114-05:47:00.944|56=ISLD|10=012|
2023/11/14 05:47:01.159938 8=FIX.4.4|9=51|35=0|34=140|49=ISLD|52=20231114-05:47:01.157|56=TW|10=009|
2023/11/14 05:47:30.944876 8=FIX.4.4|9=51|35=0|34=141|49=TW|52=20231114-05:47:30.944|56=ISLD|10=016|
2023/11/14 05:47:31.163167 8=FIX.4.4|9=51|35=0|34=141|49=ISLD|52=20231114-05:47:31.160|56=TW|10=007|
2023/11/14 05:48:00.945625 8=FIX.4.4|9=51|35=0|34=142|49=TW|52=20231114-05:48:00.945|56=ISLD|10=016|
2023/11/14 05:48:01.164960 8=FIX.4.4|9=51|35=0|34=142|49=ISLD|52=20231114-05:48:01.163|56=TW|10=009|
2023/11/14 05:48:30.945852 8=FIX.4.4|9=51|35=0|34=143|49=TW|52=20231114-05:48:30.945|56=ISLD|10=020|
2023/11/14 05:48:31.167418 8=FIX.4.4|9=51|35=0|34=143|49=ISLD|52=20231114-05:48:31.165|56=TW|10=015|
2023/11/14 05:49:00.946771 8=FIX.4.4|9=51|35=0|34=144|49=TW|52=20231114-05:49:00.946|56=ISLD|10=020|
2023/11/14 05:49:01.170181 8=FIX.4.4|9=51|35=0|34=144|49=ISLD|52=20231114-05:49:01.167|56=TW|10=016|
2023/11/14 05:49:30.947057 8=FIX.4.4|9=51|35=0|34=145|49=TW|52=20231114-05:49:30.947|56=ISLD|10=025|
2023/11/14 05:49:31.172349 8=FIX.4.4|9=51|35=0|34=145|49=ISLD|52=20231114-05:49:31.170|56=TW|10=014|
2023/11/14 05:50:00.948441 8=FIX.4.4|9=51|35=0|34=146|49=TW|52=20231114-05:50:00.948|56=ISLD|10=016|
2023/11/14 05:50:01.174182 8=FIX.4.4|9=51|35=0|34=146|49=ISLD|52=20231114-05:50:01.172|56=TW|10=006|
2023/11/14 05:50:30.949354 8=FIX.4.4|9=51|35=0|34=147|49=TW|52=20231114-05:50:30.949|56=ISLD|10=021|
2023/11/14 05:50:31.176696 8=FIX.4.4|9=51|35=0|34=147|49=ISLD|52=20231114-05:50:31.175|56=TW|10=013|
2023/11/14 05:51:00.950123 8=FIX.4.4|9=51|35=0|34=148|49=TW|52=20231114-05:51:00.950|56=ISLD|10=012|
2023/11/14 05:51:01.180002 8=FIX.4.4|9=51|35=0|34=148|49=ISLD|52=20231114-05:51:01.177|56=TW|10=014|
2023/11/14 05:51:30.950411 8=FIX.4.4|9=51|35=0|34=149|49=TW|52=20231114-05:51:30.950|56=ISLD|10=016|
2023/11/14 05:51:31.181866 8=FIX.4.4|9=51|35=0|34=149|49=ISLD|52=20231114-05:51:31.180|56=TW|10=012|
2023/11/14 05:52:00.951244 8=FIX.4.4|9=51|35=0|34=150|49=TW|52=20231114-05:52:00.951|56=ISLD|10=007|
2023/11/14 05:52:01.183730 8=FIX.4.4|9=51|35=0|34=150|49=ISLD|52=20231114-05:52:01.182|56=TW|10=004|
2023/11/14 05:52:30.952429 8=FIX.4.4|9=51|35=0|34=151|49=TW|52=20231114-05:52:30.952|56=ISLD|10=012|
2023/11/14 05:52:31.185989 8=FIX.4.4|9=51|35=0|34=151|49=ISLD|52=20231114-05:52:31.184|56=TW|10=010|
2023/11/14 05:53:00.952879 8=FIX.4.4|9=51|35=0|34=152|49=TW|52=20231114-05:53:00.952|56=ISLD|10=011|
2023/11/14 05:53:01.189265 8=FIX.4.4|9=51|35=0|34=152|49=ISLD|52=20231114-05:53:01.186|56=TW|10=011|
2023/11/14 05:53:30.953289 8=FIX.4.4|9=51|35=0|34=153|49=TW|52=20231114-05:53:30.953|56=ISLD|10=016|
2023/11/14 05:53:31.192063 8=FIX.4.4|9=51|35=0|34=153|49=ISLD|52=20231114-05:53:31.189|56=TW|10=018|
2023/11/14 05:54:00.953696 8=FIX.4.4|9=51|35=0|34=154|49=TW|52=20231114-05:54:00.953|56=ISLD|10=015|
2023/11/14 05:54:01.194463 8=FIX.4.4|9=51|35=0|34=154|49=ISLD|52=20231114-05:54:01.192|56=TW|10=011|
2023/11/14 05:54:30.954979 8=FIX.4.4|9=51|35=0|34=155|49=TW|52=20231114-05:54:30.954|56=ISLD|10=020|
2023/11/14 05:54:31.197261 8=FIX.4.4|9=51|35=0|34=155|49=ISLD|52=20231114-05:54:31.194|56=TW|10=017|
2023/11/14 06:53:21.372937 8=FIX.4.4|9=51|35=0|34=156|49=TW|52=20231114-06:53:21.372|56=ISLD|10=015|
2023/11/14 06:53:21.617004 8=FIX.4.4|9=51|35=0|34=156|49=ISLD|52=20231114-06:53:21.614|56=TW|10=014|
2023/11/14 06:53:51.373824 8=FIX.4.4|9=51|35=0|34=157|49=TW|52=20231114-06:53:51.373|56=ISLD|10=020|
2023/11/14 06:53:51.620122 8=FIX.4.4|9=51|35=0|34=157|49=ISLD|52=20231114-06:53:51.617|56=TW|10=021|
2023/11/14 06:54:21.374569 8=FIX.4.4|9=51|35=0|34=158|49=TW|52=20231114-06:54:21.374|56=ISLD|10=020|
2023/11/14 06:54:21.623452 8=FIX.4.4|9=51|35=0|34=158|49=ISLD|52=20231114-06:54:21.620|56=TW|10=014|
2023/11/14 06:54:51.375844 8=FIX.4.4|9=51|35=0|34=159|49=TW|52=20231114-06:54:51.375|56=ISLD|10=025|
2023/11/14 06:54:51.625215 8=FIX.4.4|9=51|35=0|34=159|49=ISLD|52=20231114-06:54:51.623|56=TW|10=021|
2023/11/14 06:55:21.376802 8=FIX.4.4|9=51|35=0|34=160|49=TW|52=20231114-06:55:21.376|56=ISLD|10=016|
2023/11/14 06:55:21.628254 8=FIX.4.4|9=51|35=0|34=160|49=ISLD|52=20231114-06:55:21.625|56=TW|10=013|
2023/11/14 06:55:51.377571 8=FIX.4.4|9=51|35=0|34=161|49=TW|52=20231114-06:55:51.377|56=ISLD|10=021|
2023/11/14 06:55:51.630024 8=FIX.4.4|9=51|35=0|34=161|49=ISLD|52=20231114-06:55:51.628|56=TW|10=020|
2023/11/14 06:56:21.378242 8=FIX.4.4|9=51|35=0|34=162|49=TW|52=20231114-06:56:21.378|56=ISLD|10=021|
2023/11/14 06:56:21.631981 8=FIX.4.4|9=51|35=0|34=162|49=ISLD|52=20231114-06:56:21.630|56=TW|10=012|
2023/11/14 06:56:51.378585 8=FIX.4.4|9=51|35=0|34=163|49=TW|52=20231114-06:56:51.378|56=ISLD|10=025|
2023/11/14 06:56:51.634516 8=FIX.4.4|9=51|35=0|34=163|49=ISLD|52=20231114-06:56:51.632|56=TW|10=018|
2023/11/14 06:57:22.169257 8=FIX.4.4|9=51|35=0|34=164|49=TW|52=20231114-06:57:22.169|56=ISLD|10=023|
2023/11/14 06:57:22.427120 8=FIX.4.4|9=51|35=0|34=164|49=ISLD|52=20231114-06:57:22.424|56=TW|10=017|
2023/11/14 06:57:52.169469 8=FIX.4.4|9=51|35=0|34=165|49=TW|52=20231114-06:57:52.169|56=ISLD|10=027|
2023/11/14 06:57:52.428372 8=FIX.4.4|9=51|35=0|34=165|49=ISLD|52=20231114-06:57:52.427|56=TW|10=024|
2023/11/14 06:58:22.170677 8=FIX.4.4|9=51|35=0|34=166|49=TW|52=20231114-06:58:22.170|56=ISLD|10=018|
2023/11/14 06:58:22.429476 8=FIX.4.4|9=51|35=0|34=166|49=ISLD|52=20231114-06:58:22.428|56=TW|10=024|
2023/11/14 06:58:52.171723 8=FIX.4.4|9=51|35=0|34=167|49=TW|52=20231114-06:58:52.171|56=ISLD|10=023|
2023/11/14 06:58:52.432205 8=FIX.4.4|9=51|35=0|34=167|49=ISLD|52=20231114-06:58:52.430|56=TW|10=021|
2023/11/14 06:59:22.172334 8=FIX.4.4|9=51|35=0|34=168|49=TW|52=20231114-06:59:22.172|56=ISLD|10=023|
2023/11/14 06:59:22.434845 8=FIX.4.4|9=51|35=0|34=168|49=ISLD|52=20231114-06:59:22.432|56=TW|10=022|
2023/11/14 06:59:52.173621 8=FIX.4.4|9=51|35=0|34=169|49=TW|52=20231114-06:59:52.173|56=ISLD|10=028|
2023/11/14 06:59:52.437313 8=FIX.4.4|9=51|35=0|34=169|49=ISLD|52=20231114-06:59:52.435|56=TW|10=029|
2023/11/14 07:00:22.173992 8=FIX.4.4|9=51|35=0|34=170|49=TW|52=20231114-07:00:22.173|56=ISLD|10=004|
2023/11/14 07:00:22.439539 8=FIX.4.4|9=51|35=0|34=170|49=ISLD|52=20231114-07:00:22.437|56=TW|10=007|
2023/11/14 07:00:52.174946 8=FIX.4.4|9=51|35=0|34=171|49=TW|52=20231114-07:00:52.174|56=ISLD|10=009|
2023/11/14 07:00:52.440230 8=FIX.4.4|9=51|35=0|34=171|49=ISLD|52=20231114-07:00:52.439|56=TW|10=013|
2023/11/14 07:01:22.176046 8=FIX.4.4|9=51|35=0|34=172|49=TW|52=20231114-07:01:22.176|56=ISLD|10=010|
2023/11/14 07:01:22.441275 8=FIX.4.4|9=51|35=0|34=172|49=ISLD|52=20231114-07:01:22.440|56=TW|10=004|
2023/11/14 07:01:52.177322 8=FIX.4.4|9=51|35=0|34=173|49=TW|52=20231114-07:01:52.177|56=ISLD|10=015|
2023/11/14 07:01:52.444883 8=FIX.4.4|9=51|35=0|34=173|49=ISLD|52=20231114-07:01:52.442|56=TW|10=010|
2023/11/14 07:02:22.178640 8=FIX.4.4|9=51|35=0|34=174|49=TW|52=20231114-07:02:22.178|56=ISLD|10=015|
2023/11/14 07:02:22.447232 8=FIX.4.4|9=51|35=0|34=174|49=ISLD|52=20231114-07:02:22.445|56=TW|10=012|
2023/11/14 07:02:52.179691 8=FIX.4.4|9=51|35=0|34=175|49=TW|52=20231114-07:02:52.179|56=ISLD|10=020|
2023/11/14 07:02:52.447918 8=FIX.4.4|9=51|35=0|34=175|49=ISLD|52=20231114-07:02:52.447|56=TW|10=018|
2023/11/14 07:03:22.180928 8=FIX.4.4|9=51|35=0|34=176|49=TW|52=20231114-07:03:22.180|56=ISLD|10=011|
2023/11/14 07:03:22.449023 8=FIX.4.4|9=51|35=0|34=176|49=ISLD|52=20231114-07:03:22.447|56=TW|10=017|
2023/11/14 07:03:52.181851 8=FIX.4.4|9=51|35=0|34=177|49=TW|52=20231114-07:03:52.181|56=ISLD|10=016|
2023/11/14 07:03:52.451042 8=FIX.4.4|9=51|35=0|34=177|49=ISLD|52=20231114-07:03:52.449|56=TW|10=023|
2023/11/14 07:04:22.182778 8=FIX.4.4|9=51|35=0|34=178|49=TW|52=20231114-07:04:22.182|56=ISLD|10=016|
2023/11/14 07:04:22.454295 8=FIX.4.4|9=51|35=0|34=178|49=ISLD|52=20231114-07:04:22.451|56=TW|10=015|
2023/11/14 07:04:52.183443 8=FIX.4.4|9=51|35=0|34=179|49=TW|52=20231114-07:04:52.183|56=ISLD|10=021|
2023/11/14 07:04:52.457999 8=FIX.4.4|9=51|35=0|34=179|49=ISLD|52=20231114-07:04:52.455|56=TW|10=023|
2023/11/14 07:05:22.184329 8=FIX.4.4|9=51|35=0|34=180|49=TW|52=20231114-07:05:22.184|56=ISLD|10=012|
2023/11/14 07:05:22.462035 8=FIX.4.4|9=51|35=0|34=180|49=ISLD|52=20231114-07:05:22.458|56=TW|10=016|
2023/11/14 07:05:52.184961 8=FIX.4.4|9=51|35=0|34=181|49=TW|52=20231114-07:05:52.184|56=ISLD|10=016|
2023/11/14 07:05:52.464646 8=FIX.4.4|9=51|35=0|34=181|49=ISLD|52=20231114-07:05:52.463|56=TW|10=016|
2023/11/14 07:06:22.186095 8=FIX.4.4|9=51|35=0|34=182|49=TW|52=20231114-07:06:22.186|56=ISLD|10=017|
2023/11/14 07:06:22.466632 8=FIX.4.4|9=51|35=0|34=182|49=ISLD|52=20231114-07:06:22.464|56=TW|10=016|
2023/11/14 07:06:52.186223 8=FIX.4.4|9=51|35=0|34=183|49=TW|52=20231114-07:06:52.186|56=ISLD|10=021|
2023/11/14 07:06:52.469126 8=FIX.4.4|9=51|35=0|34=183|49=ISLD|52=20231114-07:06:52.467|56=TW|10=023|
2023/11/14 07:07:22.186997 8=FIX.4.4|9=51|35=0|34=184|49=TW|52=20231114-07:07:22.186|56=ISLD|10=020|
2023/11/14 07:07:22.471747 8=FIX.4.4|9=51|35=0|34=184|49=ISLD|52=20231114-07:07:22.469|56=TW|10=024|
2023/11/14 07:07:52.187729 8=FIX.4.4|9=51|35=0|34=185|49=TW|52=20231114-07:07:52.187|56=ISLD|10=025|
2023/11/14 07:07:52.474306 8=FIX.4.4|9=51|35=0|34=185|49=ISLD|52=20231114-07:07:52.472|56=TW|10=022|
2023/11/14 07:08:22.188841 8=FIX.4.4|9=51|35=0|34=186|49=TW|52=20231114-07:08:22.188|56=ISLD|10=025|
2023/11/14 07:08:22.475766 8=FIX.4.4|9=51|35=0|34=186|49=ISLD|52=20231114-07:08:22.474|56=TW|10=023|
2023/11/14 07:08:52.189903 8=FIX.4.4|9=51|35=0|34=187|49=TW|52=20231114-07:08:52.189|56=ISLD|10=030|
2023/11/14 07:08:52.478018 8=FIX.4.4|9=51|35=0|34=187|49=ISLD|52=20231114-07:08:52.475|56=TW|10=028|
2023/11/14 07:09:22.190241 8=FIX.4.4|9=51|35=0|34=188|49=TW|52=20231114-07:09:22.190|56=ISLD|10=021|
2023/11/14 07:09:22.481265 8=FIX.4.4|9=51|35=0|34=188|49=ISLD|52=20231114-07:09:22.478|56=TW|10=030|
2023/11/14 07:09:52.190802 8=FIX.4.4|9=51|35=0|34=189|49=TW|52=20231114-07:09:52.190|56=ISLD|10=025|
2023/11/14 07:09:52.483303 8=FIX.4.4|9=51|35=0|34=189|49=ISLD|52=20231114-07:09:52.481|56=TW|10=028|
2023/11/14 07:10:22.192091 8=FIX.4.4|9=51|35=0|34=190|49=TW|52=20231114-07:10:22.192|56=ISLD|10=008|
2023/11/14 07:10:22.484805 8=FIX.4.4|9=51|35=0|34=190|49=ISLD|52=20231114-07:10:22.483|56=TW|10=011|
2023/11/14 07:10:52.193193 8=FIX.4.4|9=51|35=0|34=191|49=TW|52=20231114-07:10:52.193|56=ISLD|10=013|
2023/11/14 07:10:52.487334 8=FIX.4.4|9=51|35=0|34=191|49=ISLD|52=20231114-07:10:52.484|56=TW|10=016|
2023/11/14 07:11:22.194209 8=FIX.4.4|9=51|35=0|34=192|49=TW|52=20231114-07:11:22.194|56=ISLD|10=013|
2023/11/14 07:11:22.488791 8=FIX.4.4|9=51|35=0|34=192|49=ISLD|52=20231114-07:11:22.487|56=TW|10=018|
2023/11/14 07:11:52.195517 8=FIX.4.4|9=51|35=0|34=193|49=TW|52=20231114-07:11:52.195|56=ISLD|10=018|
2023/11/14 07:11:52.490942 8=FIX.4.4|9=51|35=0|34=193|49=ISLD|52=20231114-07:11:52.489|56=TW|10=024|
2023/11/14 07:12:22.195887 8=FIX.4.4|9=51|35=0|34=194|49=TW|52=20231114-07:12:22.195|56=ISLD|10=017|
2023/11/14 07:12:22.493536 8=FIX.4.4|9=51|35=0|34=194|49=ISLD|52=20231114-07:12:22.491|56=TW|10=016|
2023/11/14 07:12:52.196457 8=FIX.4.4|9=51|35=0|34=195|49=TW|52=20231114-07:12:52.196|56=ISLD|10=022|
2023/11/14 07:12:52.496146 8=FIX.4.4|9=51|35=0|34=195|49=ISLD|52=20231114-07:12:52.494|56=TW|10=023|
2023/11/14 07:13:22.196870 8=FIX.4.4|9=51|35=0|34=196|49=TW|52=20231114-07:13:22.196|56=ISLD|10=021|
2023/11/14 07:13:22.500311 8=FIX.4.4|9=51|35=0|34=196|49=ISLD|52=20231114-07:13:22.496|56=TW|10=024|
2023/11/14 07:13:52.197977 8=FIX.4.4|9=51|35=0|34=197|49=TW|52=20231114-07:13:52.197|56=ISLD|10=026|
2023/11/14 07:13:52.503521 8=FIX.4.4|9=51|35=0|34=197|49=ISLD|52=20231114-07:13:52.500|56=TW|10=014|
2023/11/14 07:14:22.198907 8=FIX.4.4|9=51|35=0|34=198|49=TW|52=20231114-07:14:22.198|56=ISLD|10=026|
2023/11/14 07:14:22.505282 8=FIX.4.4|9=51|35=0|34=198|49=ISLD|52=20231114-07:14:22.503|56=TW|10=016|
2023/11/14 07:14:52.199209 8=FIX.4.4|9=51|35=0|34=199|49=TW|52=20231114-07:14:52.199|56=ISLD|10=031|
2023/11/14 07:14:52.507980 8=FIX.4.4|9=51|35=0|34=199|49=ISLD|52=20231114-07:14:52.506|56=TW|10=023|
2023/11/14 07:15:22.200061 8=FIX.4.4|9=51|35=0|34=200|49=TW|52=20231114-07:15:22.199|56=ISLD|10=012|
2023/11/14 07:15:22.510707 8=FIX.4.4|9=51|35=0|34=200|49=ISLD|52=20231114-07:15:22.507|56=TW|10=005|
2023/11/14 07:15:52.201174 8=FIX.4.4|9=51|35=0|34=201|49=TW|52=20231114-07:15:52.201|56=ISLD|10=000|
2023/11/14 07:15:52.513469 8=FIX.4.4|9=51|35=0|34=201|49=ISLD|52=20231114-07:15:52.510|56=TW|10=003|
2023/11/14 07:16:22.201497 8=FIX.4.4|9=51|35=0|34=202|49=TW|52=20231114-07:16:22.201|56=ISLD|10=255|
2023/11/14 07:16:22.516039 8=FIX.4.4|9=51|35=0|34=202|49=ISLD|52=20231114-07:16:22.514|56=TW|10=006|
2023/11/14 07:16:52.201726 8=FIX.4.4|9=51|35=0|34=203|49=TW|52=20231114-07:16:52.201|56=ISLD|10=003|
2023/11/14 07:16:52.517090 8=FIX.4.4|9=51|35=0|34=203|49=ISLD|52=20231114-07:16:52.516|56=TW|10=012|
2023/11/14 07:17:22.201894 8=FIX.4.4|9=51|35=0|34=204|49=TW|52=20231114-07:17:22.201|56=ISLD|10=002|
2023/11/14 07:17:22.520414 8=FIX.4.4|9=51|35=0|34=204|49=ISLD|52=20231114-07:17:22.517|56=TW|10=012|
2023/11/14 07:17:52.202200 8=FIX.4.4|9=51|35=0|34=205|49=TW|52=20231114-07:17:52.202|56=ISLD|10=007|
2023/11/14 07:17:52.522802 8=FIX.4.4|9=51|35=0|34=205|49=ISLD|52=20231114-07:17:52.521|56=TW|10=011|
2023/11/14 07:18:22.202592 8=FIX.4.4|9=51|35=0|34=206|49=TW|52=20231114-07:18:22.202|56=ISLD|10=006|
2023/11/14 07:18:22.524282 8=FIX.4.4|9=51|35=0|34=206|49=ISLD|52=20231114-07:18:22.523|56=TW|10=012|
2023/11/14 07:18:52.203753 8=FIX.4.4|9=51|35=0|34=207|49=TW|52=20231114-07:18:52.203|56=ISLD|10=011|
2023/11/14 07:18:52.525754 8=FIX.4.4|9=51|35=0|34=207|49=ISLD|52=20231114-07:18:52.525|56=TW|10=018|
2023/11/14 07:19:22.204782 8=FIX.4.4|9=51|35=0|34=208|49=TW|52=20231114-07:19:22.204|56=ISLD|10=011|
2023/11/14 07:19:22.526846 8=FIX.4.4|9=51|35=0|34=208|49=ISLD|52=20231114-07:19:22.525|56=TW|10=017|
2023/11/14 07:19:52.205704 8=FIX.4.4|9=51|35=0|34=209|49=TW|52=20231114-07:19:52.205|56=ISLD|10=016|
2023/11/14 07:19:52.529542 8=FIX.4.4|9=51|35=0|34=209|49=ISLD|52=20231114-07:19:52.527|56=TW|10=023|
2023/11/14 07:20:22.206820 8=FIX.4.4|9=51|35=0|34=210|49=TW|52=20231114-07:20:22.206|56=ISLD|10=254|
2023/11/14 07:20:22.530934 8=FIX.4.4|9=51|35=0|34=210|49=ISLD|52=20231114-07:20:22.530|56=TW|10=254|
2023/11/14 07:20:52.208033 8=FIX.4.4|9=51|35=0|34=211|49=TW|52=20231114-07:20:52.207|56=ISLD|10=003|
2023/11/14 07:20:52.532416 8=FIX.4.4|9=51|35=0|34=211|49=ISLD|52=20231114-07:20:52.531|56=TW|10=003|
2023/11/14 07:21:22.208911 8=FIX.4.4|9=51|35=0|34=212|49=TW|52=20231114-07:21:22.208|56=ISLD|10=003|
2023/11/14 07:21:22.535554 8=FIX.4.4|9=51|35=0|34=212|49=ISLD|52=20231114-07:21:22.533|56=TW|10=004|
2023/11/14 07:21:52.210089 8=FIX.4.4|9=51|35=0|34=213|49=TW|52=20231114-07:21:52.210|56=ISLD|10=000|
2023/11/14 07:21:52.536500 8=FIX.4.4|9=51|35=0|34=213|49=ISLD|52=20231114-07:21:52.535|56=TW|10=010|
2023/11/14 07:22:22.211222 8=FIX.4.4|9=51|35=0|34=214|49=TW|52=20231114-07:22:22.211|56=ISLD|10=000|
2023/11/14 07:22:22.537607 8=FIX.4.4|9=51|35=0|34=214|49=ISLD|52=20231114-07:22:22.537|56=TW|10=011|
2023/11/14 07:22:52.211886 8=FIX.4.4|9=51|35=0|34=215|49=TW|52=20231114-07:22:52.211|56=ISLD|10=004|
2023/11/14 07:22:52.538989 8=FIX.4.4|9=51|35=0|34=215|49=ISLD|52=20231114-07:22:52.537|56=TW|10=015|
2023/11/14 07:23:22.212986 8=FIX.4.4|9=51|35=0|34=216|49=TW|52=20231114-07:23:22.212|56=ISLD|10=004|
2023/11/14 07:23:22.540310 8=FIX.4.4|9=51|35=0|34=216|49=ISLD|52=20231114-07:23:22.539|56=TW|10=016|
2023/11/14 07:23:52.214123 8=FIX.4.4|9=51|35=0|34=217|49=TW|52=20231114-07:23:52.214|56=ISLD|10=010|
2023/11/14 07:23:52.543140 8=FIX.4.4|9=51|35=0|34=217|49=ISLD|52=20231114-07:23:52.540|56=TW|10=012|
2023/11/14 07:24:22.215120 8=FIX.4.4|9=51|35=0|34=218|49=TW|52=20231114-07:24:22.215|56=ISLD|10=010|
2023/11/14 07:24:22.545872 8=FIX.4.4|9=51|35=0|34=218|49=ISLD|52=20231114-07:24:22.543|56=TW|10=014|
2023/11/14 07:24:52.215422 8=FIX.4.4|9=51|35=0|34=219|49=TW|52=20231114-07:24:52.215|56=ISLD|10=014|
2023/11/14 07:24:52.546743 8=FIX.4.4|9=51|35=0|34=219|49=ISLD|52=20231114-07:24:52.546|56=TW|10=021|
2023/11/14 07:25:22.216428 8=FIX.4.4|9=51|35=0|34=220|49=TW|52=20231114-07:25:22.216|56=ISLD|10=005|
2023/11/14 07:25:22.548104 8=FIX.4.4|9=51|35=0|34=220|49=ISLD|52=20231114-07:25:22.547|56=TW|10=012|
2023/11/14 07:25:52.217357 8=FIX.4.4|9=51|35=0|34=221|49=TW|52=20231114-07:25:52.217|56=ISLD|10=010|
2023/11/14 07:25:52.549681 8=FIX.4.4|9=51|35=0|34=221|49=ISLD|52=20231114-07:25:52.549|56=TW|10=018|
2023/11/14 07:26:22.218301 8=FIX.4.4|9=51|35=0|34=222|49=TW|52=20231114-07:26:22.218|56=ISLD|10=010|
2023/11/14 07:26:22.550899 8=FIX.4.4|9=51|35=0|34=222|49=ISLD|52=20231114-07:26:22.550|56=TW|10=009|
2023/11/14 07:26:52.219027 8=FIX.4.4|9=51|35=0|34=223|49=TW|52=20231114-07:26:52.219|56=ISLD|10=015|
2023/11/14 07:26:52.552166 8=FIX.4.4|9=51|35=0|34=223|49=ISLD|52=20231114-07:26:52.551|56=TW|10=014|
2023/11/14 07:27:22.220192 8=FIX.4.4|9=51|35=0|34=224|49=TW|52=20231114-07:27:22.220|56=ISLD|10=006|
2023/11/14 07:27:22.556037 8=FIX.4.4|9=51|35=0|34=224|49=ISLD|52=20231114-07:27:22.552|56=TW|10=014|
2023/11/14 07:27:52.221163 8=FIX.4.4|9=51|35=0|34=225|49=TW|52=20231114-07:27:52.221|56=ISLD|10=011|
2023/11/14 07:27:52.557609 8=FIX.4.4|9=51|35=0|34=225|49=ISLD|52=20231114-07:27:52.555|56=TW|10=021|
2023/11/14 07:28:22.222370 8=FIX.4.4|9=51|35=0|34=226|49=TW|52=20231114-07:28:22.222|56=ISLD|10=011|
2023/11/14 07:28:22.559307 8=FIX.4.4|9=51|35=0|34=226|49=ISLD|52=20231114-07:28:22.558|56=TW|10=023|
2023/11/14 07:28:52.223482 8=FIX.4.4|9=51|35=0|34=227|49=TW|52=20231114-07:28:52.223|56=ISLD|10=016|
2023/11/14 07:28:52.561529 8=FIX.4.4|9=51|35=0|34=227|49=ISLD|52=20231114-07:28:52.559|56=TW|10=028|
2023/11/14 07:29:22.223853 8=FIX.4.4|9=51|35=0|34=228|49=TW|52=20231114-07:29:22.223|56=ISLD|10=015|
2023/11/14 07:29:22.565299 8=FIX.4.4|9=51|35=0|34=228|49=ISLD|52=20231114-07:29:22.561|56=TW|10=020|
2023/11/14 07:29:52.225096 8=FIX.4.4|9=51|35=0|34=229|49=TW|52=20231114-07:29:52.225|56=ISLD|10=021|
2023/11/14 07:29:52.567849 8=FIX.4.4|9=51|35=0|34=229|49=ISLD|52=20231114-07:29:52.565|56=TW|10=028|
2023/11/14 07:30:22.226158 8=FIX.4.4|9=51|35=0|34=230|49=TW|52=20231114-07:30:22.226|56=ISLD|10=003|
2023/11/14 07:30:22.570079 8=FIX.4.4|9=51|35=0|34=230|49=ISLD|52=20231114-07:30:22.568|56=TW|10=012|
2023/11/14 07:30:52.227247 8=FIX.4.4|9=51|35=0|34=231|49=TW|52=20231114-07:30:52.227|56=ISLD|10=008|
2023/11/14 07:30:52.571846 8=FIX.4.4|9=51|35=0|34=231|49=ISLD|52=20231114-07:30:52.570|56=TW|10=009|
2023/11/14 07:31:22.228443 8=FIX.4.4|9=51|35=0|34=232|49=TW|52=20231114-07:31:22.228|56=ISLD|10=008|
2023/11/14 07:31:22.574590 8=FIX.4.4|9=51|35=0|34=232|49=ISLD|52=20231114-07:31:22.572|56=TW|10=010|
2023/11/14 07:31:52.229187 8=FIX.4.4|9=51|35=0|34=233|49=TW|52=20231114-07:31:52.229|56=ISLD|10=013|
2023/11/14 07:31:52.577277 8=FIX.4.4|9=51|35=0|34=233|49=ISLD|52=20231114-07:31:52.575|56=TW|10=017|
2023/11/14 07:32:22.230061 8=FIX.4.4|9=51|35=0|34=234|49=TW|52=20231114-07:32:22.229|56=ISLD|10=012|
2023/11/14 07:32:22.578472 8=FIX.4.4|9=51|35=0|34=234|49=ISLD|52=20231114-07:32:22.577|56=TW|10=018|
2023/11/14 07:32:52.230893 8=FIX.4.4|9=51|35=0|34=235|49=TW|52=20231114-07:32:52.230|56=ISLD|10=008|
2023/11/14 07:32:52.579301 8=FIX.4.4|9=51|35=0|34=235|49=ISLD|52=20231114-07:32:52.578|56=TW|10=023|
2023/11/14 07:33:22.231035 8=FIX.4.4|9=51|35=0|34=236|49=TW|52=20231114-07:33:22.231|56=ISLD|10=008|
2023/11/14 07:33:22.580682 8=FIX.4.4|9=51|35=0|34=236|49=ISLD|52=20231114-07:33:22.579|56=TW|10=023|
2023/11/14 07:33:52.231967 8=FIX.4.4|9=51|35=0|34=237|49=TW|52=20231114-07:33:52.231|56=ISLD|10=012|
2023/11/14 07:33:52.581265 8=FIX.4.4|9=51|35=0|34=237|49=ISLD|52=20231114-07:33:52.580|56=TW|10=019|
2023/11/14 07:34:22.233271 8=FIX.4.4|9=51|35=0|34=238|49=TW|52=20231114-07:34:22.233|56=ISLD|10=013|
2023/11/14 07:34:22.584769 8=FIX.4.4|9=51|35=0|34=238|49=ISLD|52=20231114-07:34:22.582|56=TW|10=020|
2023/11/14 07:34:52.233898 8=FIX.4.4|9=51|35=0|34=239|49=TW|52=20231114-07:34:52.233|56=ISLD|10=017|
2023/11/14 07:34:52.586605 8=FIX.4.4|9=51|35=0|34=239|49=ISLD|52=20231114-07:34:52.584|56=TW|10=026|
2023/11/14 07:35:22.234211 8=FIX.4.4|9=51|35=0|34=240|49=TW|52=20231114-07:35:22.234|56=ISLD|10=008|
2023/11/14 07:35:22.587588 8=FIX.4.4|9=51|35=0|34=240|49=ISLD|52=20231114-07:35:22.586|56=TW|10=018|
2023/11/14 07:35:52.234858 8=FIX.4.4|9=51|35=0|34=241|49=TW|52=20231114-07:35:52.234|56=ISLD|10=012|
2023/11/14 07:35:52.590199 8=FIX.4.4|9=51|35=0|34=241|49=ISLD|52=20231114-07:35:52.588|56=TW|10=024|
2023/11/14 07:36:22.235458 8=FIX.4.4|9=51|35=0|34=242|49=TW|52=20231114-07:36:22.235|56=ISLD|10=012|
2023/11/14 07:36:22.592353 8=FIX.4.4|9=51|35=0|34=242|49=ISLD|52=20231114-07:36:22.590|56=TW|10=016|
2023/11/14 07:36:52.236402 8=FIX.4.4|9=51|35=0|34=243|49=TW|52=20231114-07:36:52.236|56=ISLD|10=017|
2023/11/14 07:36:52.594222 8=FIX.4.4|9=51|35=0|34=243|49=ISLD|52=20231114-07:36:52.592|56=TW|10=022|
2023/11/14 07:37:22.237575 8=FIX.4.4|9=51|35=0|34=244|49=TW|52=20231114-07:37:22.237|56=ISLD|10=017|
2023/11/14 07:37:22.595758 8=FIX.4.4|9=51|35=0|34=244|49=ISLD|52=20231114-07:37:22.594|56=TW|10=023|
2023/11/14 07:37:52.237821 8=FIX.4.4|9=51|35=0|34=245|49=TW|52=20231114-07:37:52.237|56=ISLD|10=021|
2023/11/14 07:37:52.597644 8=FIX.4.4|9=51|35=0|34=245|49=ISLD|52=20231114-07:37:52.595|56=TW|10=028|
2023/11/14 07:38:22.238119 8=FIX.4.4|9=51|35=0|34=246|49=TW|52=20231114-07:38:22.238|56=ISLD|10=021|
2023/11/14 07:38:22.599930 8=FIX.4.4|9=51|35=0|34=246|49=ISLD|52=20231114-07:38:22.598|56=TW|10=030|
2023/11/14 07:38:52.239020 8=FIX.4.4|9=51|35=0|34=247|49=TW|52=20231114-07:38:52.238|56=ISLD|10=025|
2023/11/14 07:38:52.601288 8=FIX.4.4|9=51|35=0|34=247|49=ISLD|52=20231114-07:38:52.599|56=TW|10=035|
2023/11/14 07:39:22.239849 8=FIX.4.4|9=51|35=0|34=248|49=TW|52=20231114-07:39:22.239|56=ISLD|10=025|
2023/11/14 07:39:22.604187 8=FIX.4.4|9=51|35=0|34=248|49=ISLD|52=20231114-07:39:22.601|56=TW|10=018|
2023/11/14 07:39:52.240845 8=FIX.4.4|9=51|35=0|34=249|49=TW|52=20231114-07:39:52.240|56=ISLD|10=021|
2023/11/14 07:39:52.607666 8=FIX.4.4|9=51|35=0|34=249|49=ISLD|52=20231114-07:39:52.604|56=TW|10=025|
2023/11/14 07:40:22.241434 8=FIX.4.4|9=51|35=0|34=250|49=TW|52=20231114-07:40:22.241|56=ISLD|10=003|
2023/11/14 07:40:22.610425 8=FIX.4.4|9=51|35=0|34=250|49=ISLD|52=20231114-07:40:22.608|56=TW|10=010|
2023/11/14 07:40:52.242449 8=FIX.4.4|9=51|35=0|34=251|49=TW|52=20231114-07:40:52.242|56=ISLD|10=008|
2023/11/14 07:40:52.611888 8=FIX.4.4|9=51|35=0|34=251|49=ISLD|52=20231114-07:40:52.610|56=TW|10=007|
2023/11/14 07:41:22.243371 8=FIX.4.4|9=51|35=0|34=252|49=TW|52=20231114-07:41:22.243|56=ISLD|10=008|
2023/11/14 07:41:22.615232 8=FIX.4.4|9=51|35=0|34=252|49=ISLD|52=20231114-07:41:22.611|56=TW|10=007|
2023/11/14 07:41:52.244245 8=FIX.4.4|9=51|35=0|34=253|49=TW|52=20231114-07:41:52.244|56=ISLD|10=013|
2023/11/14 07:41:52.617061 8=FIX.4.4|9=51|35=0|34=253|49=ISLD|52=20231114-07:41:52.615|56=TW|10=015|
2023/11/14 07:42:22.244966 8=FIX.4.4|9=51|35=0|34=254|49=TW|52=20231114-07:42:22.244|56=ISLD|10=012|
2023/11/14 07:42:22.619227 8=FIX.4.4|9=51|35=0|34=254|49=ISLD|52=20231114-07:42:22.617|56=TW|10=016|
2023/11/14 07:42:52.246165 8=FIX.4.4|9=51|35=0|34=255|49=TW|52=20231114-07:42:52.246|56=ISLD|10=018|
2023/11/14 07:42:52.621347 8=FIX.4.4|9=51|35=0|34=255|49=ISLD|52=20231114-07:42:52.619|56=TW|10=022|
2023/11/14 07:43:22.246386 8=FIX.4.4|9=51|35=0|34=256|49=TW|52=20231114-07:43:22.246|56=ISLD|10=017|
2023/11/14 07:43:22.624978 8=FIX.4.4|9=51|35=0|34=256|49=ISLD|52=20231114-07:43:22.621|56=TW|10=014|
2023/11/14 07:43:52.247428 8=FIX.4.4|9=51|35=0|34=257|49=TW|52=20231114-07:43:52.247|56=ISLD|10=022|
2023/11/14 07:43:52.627003 8=FIX.4.4|9=51|35=0|34=257|49=ISLD|52=20231114-07:43:52.625|56=TW|10=022|
2023/11/14 07:44:22.248473 8=FIX.4.4|9=51|35=0|34=258|49=TW|52=20231114-07:44:22.248|56=ISLD|10=022|
2023/11/14 07:44:22.628993 8=FIX.4.4|9=51|35=0|34=258|49=ISLD|52=20231114-07:44:22.627|56=TW|10=023|
2023/11/14 07:44:52.249101 8=FIX.4.4|9=51|35=0|34=259|49=TW|52=20231114-07:44:52.249|56=ISLD|10=027|
2023/11/14 07:44:52.631526 8=FIX.4.4|9=51|35=0|34=259|49=ISLD|52=20231114-07:44:52.628|56=TW|10=028|
2023/11/14 07:45:22.250266 8=FIX.4.4|9=51|35=0|34=260|49=TW|52=20231114-07:45:22.250|56=ISLD|10=009|
2023/11/14 07:45:22.634494 8=FIX.4.4|9=51|35=0|34=260|49=ISLD|52=20231114-07:45:22.632|56=TW|10=013|
2023/11/14 07:45:52.251191 8=FIX.4.4|9=51|35=0|34=261|49=TW|52=20231114-07:45:52.251|56=ISLD|10=014|
2023/11/14 07:45:52.637310 8=FIX.4.4|9=51|35=0|34=261|49=ISLD|52=20231114-07:45:52.635|56=TW|10=020|
2023/11/14 07:46:22.252316 8=FIX.4.4|9=51|35=0|34=262|49=TW|52=20231114-07:46:22.252|56=ISLD|10=014|
2023/11/14 07:46:22.639211 8=FIX.4.4|9=51|35=0|34=262|49=ISLD|52=20231114-07:46:22.637|56=TW|10=021|
2023/11/14 07:46:52.253294 8=FIX.4.4|9=51|35=0|34=263|49=TW|52=20231114-07:46:52.253|56=ISLD|10=019|
2023/11/14 07:46:52.641357 8=FIX.4.4|9=51|35=0|34=263|49=ISLD|52=20231114-07:46:52.639|56=TW|10=027|
2023/11/14 07:47:22.254226 8=FIX.4.4|9=51|35=0|34=264|49=TW|52=20231114-07:47:22.254|56=ISLD|10=019|
2023/11/14 07:47:22.644194 8=FIX.4.4|9=51|35=0|34=264|49=ISLD|52=20231114-07:47:22.641|56=TW|10=019|
2023/11/14 07:47:52.255306 8=FIX.4.4|9=51|35=0|34=265|49=TW|52=20231114-07:47:52.255|56=ISLD|10=024|
2023/11/14 07:47:52.644819 8=FIX.4.4|9=51|35=0|34=265|49=ISLD|52=20231114-07:47:52.644|56=TW|10=026|
2023/11/14 07:48:22.256316 8=FIX.4.4|9=51|35=0|34=266|49=TW|52=20231114-07:48:22.256|56=ISLD|10=024|
2023/11/14 07:48:22.646876 8=FIX.4.4|9=51|35=0|34=266|49=ISLD|52=20231114-07:48:22.645|56=TW|10=026|
2023/11/14 07:48:52.257206 8=FIX.4.4|9=51|35=0|34=267|49=TW|52=20231114-07:48:52.257|56=ISLD|10=029|
2023/11/14 07:48:52.649344 8=FIX.4.4|9=51|35=0|34=267|49=ISLD|52=20231114-07:48:52.646|56=TW|10=031|
2023/11/14 07:49:22.258406 8=FIX.4.4|9=51|35=0|34=268|49=TW|52=20231114-07:49:22.258|56=ISLD|10=029|
2023/11/14 07:49:22.653083 8=FIX.4.4|9=51|35=0|34=268|49=ISLD|52=20231114-07:49:22.649|56=TW|10=033|
2023/11/14 07:49:52.259423 8=FIX.4.4|9=51|35=0|34=269|49=TW|52=20231114-07:49:52.259|56=ISLD|10=034|
2023/11/14 07:49:52.655957 8=FIX.4.4|9=51|35=0|34=269|49=ISLD|52=20231114-07:49:52.653|56=TW|10=032|
2023/11/14 07:50:22.260552 8=FIX.4.4|9=51|35=0|34=270|49=TW|52=20231114-07:50:22.260|56=ISLD|10=007|
2023/11/14 07:50:22.658378 8=FIX.4.4|9=51|35=0|34=270|49=ISLD|52=20231114-07:50:22.656|56=TW|10=016|
2023/11/14 07:50:52.261270 8=FIX.4.4|9=51|35=0|34=271|49=TW|52=20231114-07:50:52.261|56=ISLD|10=012|
2023/11/14 07:50:52.659919 8=FIX.4.4|9=51|35=0|34=271|49=ISLD|52=20231114-07:50:52.658|56=TW|10=022|
2023/11/14 07:51:22.262449 8=FIX.4.4|9=51|35=0|34=272|49=TW|52=20231114-07:51:22.262|56=ISLD|10=012|
2023/11/14 07:51:22.662788 8=FIX.4.4|9=51|35=0|34=272|49=ISLD|52=20231114-07:51:22.659|56=TW|10=022|
2023/11/14 07:51:52.263185 8=FIX.4.4|9=51|35=0|34=273|49=TW|52=20231114-07:51:52.263|56=ISLD|10=017|
2023/11/14 07:51:52.663675 8=FIX.4.4|9=51|35=0|34=273|49=ISLD|52=20231114-07:51:52.662|56=TW|10=020|
2023/11/14 07:52:22.263451 8=FIX.4.4|9=51|35=0|34=274|49=TW|52=20231114-07:52:22.263|56=ISLD|10=016|
2023/11/14 07:52:22.666407 8=FIX.4.4|9=51|35=0|34=274|49=ISLD|52=20231114-07:52:22.664|56=TW|10=021|
2023/11/14 07:52:52.264701 8=FIX.4.4|9=51|35=0|34=275|49=TW|52=20231114-07:52:52.264|56=ISLD|10=021|
2023/11/14 07:52:52.668410 8=FIX.4.4|9=51|35=0|34=275|49=ISLD|52=20231114-07:52:52.666|56=TW|10=027|
2023/11/14 07:53:22.265871 8=FIX.4.4|9=51|35=0|34=276|49=TW|52=20231114-07:53:22.265|56=ISLD|10=021|
2023/11/14 07:53:22.671192 8=FIX.4.4|9=51|35=0|34=276|49=ISLD|52=20231114-07:53:22.668|56=TW|10=028|
2023/11/14 07:53:52.266563 8=FIX.4.4|9=51|35=0|34=277|49=TW|52=20231114-07:53:52.266|56=ISLD|10=026|
2023/11/14 07:53:52.673163 8=FIX.4.4|9=51|35=0|34=277|49=ISLD|52=20231114-07:53:52.671|56=TW|10=026|
2023/11/14 07:54:22.266954 8=FIX.4.4|9=51|35=0|34=278|49=TW|52=20231114-07:54:22.266|56=ISLD|10=025|
2023/11/14 07:54:22.675798 8=FIX.4.4|9=51|35=0|34=278|49=ISLD|52=20231114-07:54:22.674|56=TW|10=028|
2023/11/14 07:54:52.268296 8=FIX.4.4|9=51|35=0|34=279|49=TW|52=20231114-07:54:52.268|56=ISLD|10=031|
2023/11/14 07:54:52.678982 8=FIX.4.4|9=51|35=0|34=279|49=ISLD|52=20231114-07:54:52.676|56=TW|10=034|
2023/11/14 07:55:22.269107 8=FIX.4.4|9=51|35=0|34=280|49=TW|52=20231114-07:55:22.269|56=ISLD|10=022|
2023/11/14 07:55:22.682254 8=FIX.4.4|9=51|35=0|34=280|49=ISLD|52=20231114-07:55:22.679|56=TW|10=027|
2023/11/14 07:55:52.269535 8=FIX.4.4|9=51|35=0|34=281|49=TW|52=20231114-07:55:52.269|56=ISLD|10=026|
2023/11/14 07:55:52.684256 8=FIX.4.4|9=51|35=0|34=281|49=ISLD|52=20231114-07:55:52.682|56=TW|10=025|
2023/11/14 07:56:22.270197 8=FIX.4.4|9=51|35=0|34=282|49=TW|52=20231114-07:56:22.270|56=ISLD|10=017|
2023/11/14 07:56:22.686133 8=FIX.4.4|9=51|35=0|34=282|49=ISLD|52=20231114-07:56:22.684|56=TW|10=026|
2023/11/14 07:56:52.271275 8=FIX.4.4|9=51|35=0|34=283|49=TW|52=20231114-07:56:52.271|56=ISLD|10=022|
2023/11/14 07:56:52.687092 8=FIX.4.4|9=51|35=0|34=283|49=ISLD|52=20231114-07:56:52.686|56=TW|10=032|
2023/11/14 07:57:22.272321 8=FIX.4.4|9=51|35=0|34=284|49=TW|52=20231114-07:57:22.272|56=ISLD|10=022|
2023/11/14 07:57:22.691005 8=FIX.4.4|9=51|35=0|34=284|49=ISLD|52=20231114-07:57:22.687|56=TW|10=032|
2023/11/14 07:57:52.272779 8=FIX.4.4|9=51|35=0|34=285|49=TW|52=20231114-07:57:52.272|56=ISLD|10=026|
2023/11/14 07:57:52.693798 8=FIX.4.4|9=51|35=0|34=285|49=ISLD|52=20231114-07:57:52.691|56=TW|10=031|
2023/11/14 07:58:22.273220 8=FIX.4.4|9=51|35=0|34=286|49=TW|52=20231114-07:58:22.273|56=ISLD|10=026|
2023/11/14 07:58:22.696081 8=FIX.4.4|9=51|35=0|34=286|49=ISLD|52=20231114-07:58:22.694|56=TW|10=033|
2023/11/14 07:58:52.274208 8=FIX.4.4|9=51|35=0|34=287|49=TW|52=20231114-07:58:52.274|56=ISLD|10=031|
2023/11/14 07:58:52.697775 8=FIX.4.4|9=51|35=0|34=287|49=ISLD|52=20231114-07:58:52.696|56=TW|10=039|
2023/11/14 07:59:22.275378 8=FIX.4.4|9=51|35=0|34=288|49=TW|52=20231114-07:59:22.275|56=ISLD|10=031|
2023/11/14 07:59:22.700705 8=FIX.4.4|9=51|35=0|34=288|49=ISLD|52=20231114-07:59:22.697|56=TW|10=039|
2023/11/14 07:59:52.276359 8=FIX.4.4|9=51|35=0|34=289|49=TW|52=20231114-07:59:52.276|56=ISLD|10=036|
2023/11/14 07:59:52.703511 8=FIX.4.4|9=51|35=0|34=289|49=ISLD|52=20231114-07:59:52.701|56=TW|10=029|
2023/11/14 08:00:22.276752 8=FIX.4.4|9=51|35=0|34=290|49=TW|52=20231114-08:00:22.276|56=ISLD|10=012|
2023/11/14 08:00:22.705555 8=FIX.4.4|9=51|35=0|34=290|49=ISLD|52=20231114-08:00:22.703|56=TW|10=007|
2023/11/14 08:00:52.278002 8=FIX.4.4|9=51|35=0|34=291|49=TW|52=20231114-08:00:52.277|56=ISLD|10=017|
2023/11/14 08:00:52.707616 8=FIX.4.4|9=51|35=0|34=291|49=ISLD|52=20231114-08:00:52.705|56=TW|10=013|
2023/11/14 08:01:22.278368 8=FIX.4.4|9=51|35=0|34=292|49=TW|52=20231114-08:01:22.278|56=ISLD|10=017|
2023/11/14 08:01:22.710569 8=FIX.4.4|9=51|35=0|34=292|49=ISLD|52=20231114-08:01:22.708|56=TW|10=015|
2023/11/14 08:01:52.278845 8=FIX.4.4|9=51|35=0|34=293|49=TW|52=20231114-08:01:52.278|56=ISLD|10=021|
2023/11/14 08:01:52.712712 8=FIX.4.4|9=51|35=0|34=293|49=ISLD|52=20231114-08:01:52.710|56=TW|10=012|
2023/11/14 08:02:22.279176 8=FIX.4.4|9=51|35=0|34=294|49=TW|52=20231114-08:02:22.279|56=ISLD|10=021|
2023/11/14 08:02:22.715739 8=FIX.4.4|9=51|35=0|34=294|49=ISLD|52=20231114-08:02:22.713|56=TW|10=014|
2023/11/14 08:02:52.280160 8=FIX.4.4|9=51|35=0|34=295|49=TW|52=20231114-08:02:52.280|56=ISLD|10=017|
2023/11/14 08:02:52.718031 8=FIX.4.4|9=51|35=0|34=295|49=ISLD|52=20231114-08:02:52.716|56=TW|10=021|
2023/11/14 08:03:22.281305 8=FIX.4.4|9=51|35=0|34=296|49=TW|52=20231114-08:03:22.281|56=ISLD|10=017|
2023/11/14 08:03:22.721297 8=FIX.4.4|9=51|35=0|34=296|49=ISLD|52=20231114-08:03:22.718|56=TW|10=022|
2023/11/14 08:03:52.281679 8=FIX.4.4|9=51|35=0|34=297|49=TW|52=20231114-08:03:52.281|56=ISLD|10=021|
2023/11/14 08:03:52.723215 8=FIX.4.4|9=51|35=0|34=297|49=ISLD|52=20231114-08:03:52.721|56=TW|10=020|
2023/11/14 08:04:22.282658 8=FIX.4.4|9=51|35=0|34=298|49=TW|52=20231114-08:04:22.282|56=ISLD|10=021|
2023/11/14 08:04:22.724446 8=FIX.4.4|9=51|35=0|34=298|49=ISLD|52=20231114-08:04:22.723|56=TW|10=021|
2023/11/14 08:04:52.283570 8=FIX.4.4|9=51|35=0|34=299|49=TW|52=20231114-08:04:52.283|56=ISLD|10=026|
2023/11/14 08:04:52.727218 8=FIX.4.4|9=51|35=0|34=299|49=ISLD|52=20231114-08:04:52.725|56=TW|10=027|
2023/11/14 08:05:22.284731 8=FIX.4.4|9=51|35=0|34=300|49=TW|52=20231114-08:05:22.284|56=ISLD|10=008|
2023/11/14 08:05:22.730323 8=FIX.4.4|9=51|35=0|34=300|49=ISLD|52=20231114-08:05:22.727|56=TW|10=010|
2023/11/14 08:05:52.285161 8=FIX.4.4|9=51|35=0|34=301|49=TW|52=20231114-08:05:52.285|56=ISLD|10=013|
2023/11/14 08:05:52.732782 8=FIX.4.4|9=51|35=0|34=301|49=ISLD|52=20231114-08:05:52.731|56=TW|10=009|
2023/11/14 08:06:22.285974 8=FIX.4.4|9=51|35=0|34=302|49=TW|52=20231114-08:06:22.285|56=ISLD|10=012|
2023/11/14 08:06:22.735572 8=FIX.4.4|9=51|35=0|34=302|49=ISLD|52=20231114-08:06:22.733|56=TW|10=010|
2023/11/14 08:06:52.287077 8=FIX.4.4|9=51|35=0|34=303|49=TW|52=20231114-08:06:52.287|56=ISLD|10=018|
2023/11/14 08:06:52.737775 8=FIX.4.4|9=51|35=0|34=303|49=ISLD|52=20231114-08:06:52.736|56=TW|10=017|
2023/11/14 08:07:22.287882 8=FIX.4.4|9=51|35=0|34=304|49=TW|52=20231114-08:07:22.287|56=ISLD|10=017|
2023/11/14 08:07:22.740698 8=FIX.4.4|9=51|35=0|34=304|49=ISLD|52=20231114-08:07:22.738|56=TW|10=018|
2023/11/14 08:07:52.289070 8=FIX.4.4|9=51|35=0|34=305|49=TW|52=20231114-08:07:52.289|56=ISLD|10=023|
2023/11/14 08:07:52.741661 8=FIX.4.4|9=51|35=0|34=305|49=ISLD|52=20231114-08:07:52.740|56=TW|10=015|
2023/11/14 08:08:22.289898 8=FIX.4.4|9=51|35=0|34=306|49=TW|52=20231114-08:08:22.289|56=ISLD|10=022|
2023/11/14 08:08:22.743580 8=FIX.4.4|9=51|35=0|34=306|49=ISLD|52=20231114-08:08:22.741|56=TW|10=015|
2023/11/14 08:08:52.290892 8=FIX.4.4|9=51|35=0|34=307|49=TW|52=20231114-08:08:52.290|56=ISLD|10=018|
2023/11/14 08:08:52.745504 8=FIX.4.4|9=51|35=0|34=307|49=ISLD|52=20231114-08:08:52.743|56=TW|10=021|
2023/11/14 08:09:22.291254 8=FIX.4.4|9=51|35=0|34=308|49=TW|52=20231114-08:09:22.291|56=ISLD|10=018|
2023/11/14 08:09:22.748501 8=FIX.4.4|9=51|35=0|34=308|49=ISLD|52=20231114-08:09:22.745|56=TW|10=022|
2023/11/14 08:09:52.292323 8=FIX.4.4|9=51|35=0|34=309|49=TW|52=20231114-08:09:52.292|56=ISLD|10=023|
2023/11/14 08:09:52.751117 8=FIX.4.4|9=51|35=0|34=309|49=ISLD|52=20231114-08:09:52.749|56=TW|10=030|
2023/11/14 08:10:22.292692 8=FIX.4.4|9=51|35=0|34=310|49=TW|52=20231114-08:10:22.292|56=ISLD|10=004|
2023/11/14 08:10:22.753192 8=FIX.4.4|9=51|35=0|34=310|49=ISLD|52=20231114-08:10:22.751|56=TW|10=004|
2023/11/14 08:10:52.293006 8=FIX.4.4|9=51|35=0|34=311|49=TW|52=20231114-08:10:52.292|56=ISLD|10=008|
2023/11/14 08:10:52.755847 8=FIX.4.4|9=51|35=0|34=311|49=ISLD|52=20231114-08:10:52.754|56=TW|10=011|
2023/11/14 08:11:22.294048 8=FIX.4.4|9=51|35=0|34=312|49=TW|52=20231114-08:11:22.293|56=ISLD|10=008|
2023/11/14 08:11:22.756888 8=FIX.4.4|9=51|35=0|34=312|49=ISLD|52=20231114-08:11:22.756|56=TW|10=012|
2023/11/14 08:11:52.295155 8=FIX.4.4|9=51|35=0|34=313|49=TW|52=20231114-08:11:52.295|56=ISLD|10=014|
2023/11/14 08:11:52.757960 8=FIX.4.4|9=51|35=0|34=313|49=ISLD|52=20231114-08:11:52.757|56=TW|10=017|
2023/11/14 08:12:22.296226 8=FIX.4.4|9=51|35=0|34=314|49=TW|52=20231114-08:12:22.296|56=ISLD|10=014|
2023/11/14 08:12:22.760351 8=FIX.4.4|9=51|35=0|34=314|49=ISLD|52=20231114-08:12:22.758|56=TW|10=017|
2023/11/14 08:12:52.297001 8=FIX.4.4|9=51|35=0|34=315|49=TW|52=20231114-08:12:52.296|56=ISLD|10=018|
2023/11/14 08:12:52.763473 8=FIX.4.4|9=51|35=0|34=315|49=ISLD|52=20231114-08:12:52.760|56=TW|10=014|
2023/11/14 08:13:22.297385 8=FIX.4.4|9=51|35=0|34=316|49=TW|52=20231114-08:13:22.297|56=ISLD|10=018|
2023/11/14 08:13:22.766653 8=FIX.4.4|9=51|35=0|34=316|49=ISLD|52=20231114-08:13:22.763|56=TW|10=016|
2023/11/14 08:13:52.297709 8=FIX.4.4|9=51|35=0|34=317|49=TW|52=20231114-08:13:52.297|56=ISLD|10=022|
2023/11/14 08:13:52.768983 8=FIX.4.4|9=51|35=0|34=317|49=ISLD|52=20231114-08:13:52.766|56=TW|10=023|
2023/11/14 08:14:22.298122 8=FIX.4.4|9=51|35=0|34=318|49=TW|52=20231114-08:14:22.298|56=ISLD|10=022|
2023/11/14 08:14:22.771550 8=FIX.4.4|9=51|35=0|34=318|49=ISLD|52=20231114-08:14:22.769|56=TW|10=025|
2023/11/14 08:14:52.298360 8=FIX.4.4|9=51|35=0|34=319|49=TW|52=20231114-08:14:52.298|56=ISLD|10=026|
2023/11/14 08:14:52.773214 8=FIX.4.4|9=51|35=0|34=319|49=ISLD|52=20231114-08:14:52.771|56=TW|10=022|
2023/11/14 08:15:22.298745 8=FIX.4.4|9=51|35=0|34=320|49=TW|52=20231114-08:15:22.298|56=ISLD|10=016|
2023/11/14 08:15:22.775920 8=FIX.4.4|9=51|35=0|34=320|49=ISLD|52=20231114-08:15:22.773|56=TW|10=014|
2023/11/14 08:15:52.299854 8=FIX.4.4|9=51|35=0|34=321|49=TW|52=20231114-08:15:52.299|56=ISLD|10=021|
2023/11/14 08:15:52.777630 8=FIX.4.4|9=51|35=0|34=321|49=ISLD|52=20231114-08:15:52.775|56=TW|10=020|
2023/11/14 08:16:22.300241 8=FIX.4.4|9=51|35=0|34=322|49=TW|52=20231114-08:16:22.300|56=ISLD|10=003|
2023/11/14 08:16:22.781138 8=FIX.4.4|9=51|35=0|34=322|49=ISLD|52=20231114-08:16:22.778|56=TW|10=022|
2023/11/14 08:16:52.301059 8=FIX.4.4|9=51|35=0|34=323|49=TW|52=20231114-08:16:52.301|56=ISLD|10=008|
2023/11/14 08:16:52.783524 8=FIX.4.4|9=51|35=0|34=323|49=ISLD|52=20231114-08:16:52.781|56=TW|10=020|
2023/11/14 08:17:22.302184 8=FIX.4.4|9=51|35=0|34=324|49=TW|52=20231114-08:17:22.302|56=ISLD|10=008|
2023/11/14 08:17:22.787037 8=FIX.4.4|9=51|35=0|34=324|49=ISLD|52=20231114-08:17:22.783|56=TW|10=021|
2023/11/14 08:17:52.302547 8=FIX.4.4|9=51|35=0|34=325|49=TW|52=20231114-08:17:52.302|56=ISLD|10=012|
2023/11/14 08:17:52.789459 8=FIX.4.4|9=51|35=0|34=325|49=ISLD|52=20231114-08:17:52.787|56=TW|10=029|
2023/11/14 08:18:22.303591 8=FIX.4.4|9=51|35=0|34=326|49=TW|52=20231114-08:18:22.303|56=ISLD|10=012|
2023/11/14 08:18:22.790103 8=FIX.4.4|9=51|35=0|34=326|49=ISLD|52=20231114-08:18:22.789|56=TW|10=030|
2023/11/14 08:18:52.304719 8=FIX.4.4|9=51|35=0|34=327|49=TW|52=20231114-08:18:52.304|56=ISLD|10=017|
2023/11/14 08:18:52.792742 8=FIX.4.4|9=51|35=0|34=327|49=ISLD|52=20231114-08:18:52.790|56=TW|10=026|
2023/11/14 08:19:22.305276 8=FIX.4.4|9=51|35=0|34=328|49=TW|52=20231114-08:19:22.305|56=ISLD|10=017|
2023/11/14 08:19:22.796411 8=FIX.4.4|9=51|35=0|34=328|49=ISLD|52=20231114-08:19:22.792|56=TW|10=027|
2023/11/14 08:19:52.305465 8=FIX.4.4|9=51|35=0|34=329|49=TW|52=20231114-08:19:52.305|56=ISLD|10=021|
2023/11/14 08:19:52.798136 8=FIX.4.4|9=51|35=0|34=329|49=ISLD|52=20231114-08:19:52.797|56=TW|10=036|
2023/11/14 08:20:22.306521 8=FIX.4.4|9=51|35=0|34=330|49=TW|52=20231114-08:20:22.306|56=ISLD|10=003|
2023/11/14 08:20:22.799844 8=FIX.4.4|9=51|35=0|34=330|49=ISLD|52=20231114-08:20:22.798|56=TW|10=018|
2023/11/14 08:20:52.307008 8=FIX.4.4|9=51|35=0|34=331|49=TW|52=20231114-08:20:52.306|56=ISLD|10=007|
2023/11/14 08:20:52.802807 8=FIX.4.4|9=51|35=0|34=331|49=ISLD|52=20231114-08:20:52.800|56=TW|10=006|
2023/11/14 08:21:22.308267 8=FIX.4.4|9=51|35=0|34=332|49=TW|52=20231114-08:21:22.308|56=ISLD|10=008|
2023/11/14 08:21:22.805888 8=FIX.4.4|9=51|35=0|34=332|49=ISLD|52=20231114-08:21:22.803|56=TW|10=008|
2023/11/14 08:21:52.308516 8=FIX.4.4|9=51|35=0|34=333|49=TW|52=20231114-08:21:52.308|56=ISLD|10=012|
2023/11/14 08:21:52.809091 8=FIX.4.4|9=51|35=0|34=333|49=ISLD|52=20231114-08:21:52.806|56=TW|10=015|
2023/11/14 08:22:22.308906 8=FIX.4.4|9=51|35=0|34=334|49=TW|52=20231114-08:22:22.308|56=ISLD|10=011|
2023/11/14 08:22:22.811358 8=FIX.4.4|9=51|35=0|34=334|49=ISLD|52=20231114-08:22:22.809|56=TW|10=017|
2023/11/14 08:22:52.309476 8=FIX.4.4|9=51|35=0|34=335|49=TW|52=20231114-08:22:52.309|56=ISLD|10=016|
2023/11/14 08:22:52.812249 8=FIX.4.4|9=51|35=0|34=335|49=ISLD|52=20231114-08:22:52.811|56=TW|10=014|
2023/11/14 08:23:22.310585 8=FIX.4.4|9=51|35=0|34=336|49=TW|52=20231114-08:23:22.310|56=ISLD|10=007|
2023/11/14 08:23:22.815816 8=FIX.4.4|9=51|35=0|34=336|49=ISLD|52=20231114-08:23:22.812|56=TW|10=014|
2023/11/14 08:23:52.310949 8=FIX.4.4|9=51|35=0|34=337|49=TW|52=20231114-08:23:52.310|56=ISLD|10=011|
2023/11/14 08:23:52.817877 8=FIX.4.4|9=51|35=0|34=337|49=ISLD|52=20231114-08:23:52.815|56=TW|10=021|
2023/11/14 08:24:22.312101 8=FIX.4.4|9=51|35=0|34=338|49=TW|52=20231114-08:24:22.312|56=ISLD|10=012|
2023/11/14 08:24:22.820880 8=FIX.4.4|9=51|35=0|34=338|49=ISLD|52=20231114-08:24:22.818|56=TW|10=023|
2023/11/14 08:24:52.313343 8=FIX.4.4|9=51|35=0|34=339|49=TW|52=20231114-08:24:52.313|56=ISLD|10=017|
2023/11/14 08:24:52.822731 8=FIX.4.4|9=51|35=0|34=339|49=ISLD|52=20231114-08:24:52.821|56=TW|10=021|
2023/11/14 08:25:22.313791 8=FIX.4.4|9=51|35=0|34=340|49=TW|52=20231114-08:25:22.313|56=ISLD|10=007|
2023/11/14 08:25:22.825721 8=FIX.4.4|9=51|35=0|34=340|49=ISLD|52=20231114-08:25:22.822|56=TW|10=012|
2023/11/14 08:25:52.314140 8=FIX.4.4|9=51|35=0|34=341|49=TW|52=20231114-08:25:52.314|56=ISLD|10=012|
2023/11/14 08:25:52.828936 8=FIX.4.4|9=51|35=0|34=341|49=ISLD|52=20231114-08:25:52.826|56=TW|10=020|
2023/11/14 08:26:22.315033 8=FIX.4.4|9=51|35=0|34=342|49=TW|52=20231114-08:26:22.314|56=ISLD|10=011|
2023/11/14 08:26:22.830818 8=FIX.4.4|9=51|35=0|34=342|49=ISLD|52=20231114-08:26:22.829|56=TW|10=022|
2023/11/14 08:26:52.315509 8=FIX.4.4|9=51|35=0|34=343|49=TW|52=20231114-08:26:52.315|56=ISLD|10=016|
2023/11/14 08:26:52.833814 8=FIX.4.4|9=51|35=0|34=343|49=ISLD|52=20231114-08:26:52.831|56=TW|10=019|
2023/11/14 08:27:22.316324 8=FIX.4.4|9=51|35=0|34=344|49=TW|52=20231114-08:27:22.316|56=ISLD|10=016|
2023/11/14 08:27:22.837739 8=FIX.4.4|9=51|35=0|34=344|49=ISLD|52=20231114-08:27:22.834|56=TW|10=021|
2023/11/14 08:27:52.316855 8=FIX.4.4|9=51|35=0|34=345|49=TW|52=20231114-08:27:52.316|56=ISLD|10=020|
2023/11/14 08:27:52.839787 8=FIX.4.4|9=51|35=0|34=345|49=ISLD|52=20231114-08:27:52.837|56=TW|10=028|
2023/11/14 08:28:22.318035 8=FIX.4.4|9=51|35=0|34=346|49=TW|52=20231114-08:28:22.318|56=ISLD|10=021|
2023/11/14 08:28:22.840568 8=FIX.4.4|9=51|35=0|34=346|49=ISLD|52=20231114-08:28:22.839|56=TW|10=029|
2023/11/14 08:28:52.319180 8=FIX.4.4|9=51|35=0|34=347|49=TW|52=20231114-08:28:52.319|56=ISLD|10=026|
2023/11/14 08:28:52.841959 8=FIX.4.4|9=51|35=0|34=347|49=ISLD|52=20231114-08:28:52.841|56=TW|10=026|
2023/11/14 08:29:22.319941 8=FIX.4.4|9=51|35=0|34=348|49=TW|52=20231114-08:29:22.319|56=ISLD|10=025|
2023/11/14 08:29:22.845494 8=FIX.4.4|9=51|35=0|34=348|49=ISLD|52=20231114-08:29:22.842|56=TW|10=026|
2023/11/14 08:29:52.320149 8=FIX.4.4|9=51|35=0|34=349|49=TW|52=20231114-08:29:52.320|56=ISLD|10=021|
2023/11/14 08:29:52.849202 8=FIX.4.4|9=51|35=0|34=349|49=ISLD|52=20231114-08:29:52.846|56=TW|10=034|
2023/11/14 08:30:22.321032 8=FIX.4.4|9=51|35=0|34=350|49=TW|52=20231114-08:30:22.320|56=ISLD|10=002|
2023/11/14 08:30:22.850917 8=FIX.4.4|9=51|35=0|34=350|49=ISLD|52=20231114-08:30:22.850|56=TW|10=010|
2023/11/14 08:30:52.322060 8=FIX.4.4|9=51|35=0|34=351|49=TW|52=20231114-08:30:52.322|56=ISLD|10=008|
2023/11/14 08:30:52.852934 8=FIX.4.4|9=51|35=0|34=351|49=ISLD|52=20231114-08:30:52.851|56=TW|10=015|
2023/11/14 08:31:22.322262 8=FIX.4.4|9=51|35=0|34=352|49=TW|52=20231114-08:31:22.322|56=ISLD|10=007|
2023/11/14 08:31:22.854740 8=FIX.4.4|9=51|35=0|34=352|49=ISLD|52=20231114-08:31:22.853|56=TW|10=016|
2023/11/14 08:31:52.322771 8=FIX.4.4|9=51|35=0|34=353|49=TW|52=20231114-08:31:52.322|56=ISLD|10=011|
2023/11/14 08:31:52.857018 8=FIX.4.4|9=51|35=0|34=353|49=ISLD|52=20231114-08:31:52.854|56=TW|10=021|
2023/11/14 08:32:22.323088 8=FIX.4.4|9=51|35=0|34=354|49=TW|52=20231114-08:32:22.323|56=ISLD|10=011|
2023/11/14 08:32:22.858752 8=FIX.4.4|9=51|35=0|34=354|49=ISLD|52=20231114-08:32:22.857|56=TW|10=023|
2023/11/14 08:32:52.323903 8=FIX.4.4|9=51|35=0|34=355|49=TW|52=20231114-08:32:52.323|56=ISLD|10=015|
2023/11/14 08:32:52.860885 8=FIX.4.4|9=51|35=0|34=355|49=ISLD|52=20231114-08:32:52.858|56=TW|10=028|
2023/11/14 08:33:22.324402 8=FIX.4.4|9=51|35=0|34=356|49=TW|52=20231114-08:33:22.324|56=ISLD|10=015|
2023/11/14 08:33:22.863826 8=FIX.4.4|9=51|35=0|34=356|49=ISLD|52=20231114-08:33:22.860|56=TW|10=020|
2023/11/14 08:33:52.325310 8=FIX.4.4|9=51|35=0|34=357|49=TW|52=20231114-08:33:52.325|56=ISLD|10=020|
2023/11/14 08:33:52.865207 8=FIX.4.4|9=51|35=0|34=357|49=ISLD|52=20231114-08:33:52.864|56=TW|10=028|
2023/11/14 08:34:22.326394 8=FIX.4.4|9=51|35=0|34=358|49=TW|52=20231114-08:34:22.326|56=ISLD|10=020|
2023/11/14 08:34:22.868075 8=FIX.4.4|9=51|35=0|34=358|49=ISLD|52=20231114-08:34:22.865|56=TW|10=028|
2023/11/14 08:34:52.327551 8=FIX.4.4|9=51|35=0|34=359|49=TW|52=20231114-08:34:52.327|56=ISLD|10=025|
2023/11/14 08:34:52.871420 8=FIX.4.4|9=51|35=0|34=359|49=ISLD|52=20231114-08:34:52.868|56=TW|10=035|
2023/11/14 08:35:22.327826 8=FIX.4.4|9=51|35=0|34=360|49=TW|52=20231114-08:35:22.327|56=ISLD|10=015|
2023/11/14 08:35:22.872408 8=FIX.4.4|9=51|35=0|34=360|49=ISLD|52=20231114-08:35:22.871|56=TW|10=019|
2023/11/14 08:35:52.328212 8=FIX.4.4|9=51|35=0|34=361|49=TW|52=20231114-08:35:52.328|56=ISLD|10=020|
2023/11/14 08:35:52.873957 8=FIX.4.4|9=51|35=0|34=361|49=ISLD|52=20231114-08:35:52.873|56=TW|10=025|
2023/11/14 08:36:22.328320 8=FIX.4.4|9=51|35=0|34=362|49=TW|52=20231114-08:36:22.328|56=ISLD|10=019|
2023/11/14 08:36:22.875554 8=FIX.4.4|9=51|35=0|34=362|49=ISLD|52=20231114-08:36:22.874|56=TW|10=025|
2023/11/14 08:36:52.329351 8=FIX.4.4|9=51|35=0|34=363|49=TW|52=20231114-08:36:52.329|56=ISLD|10=024|
2023/11/14 08:36:52.878682 8=FIX.4.4|9=51|35=0|34=363|49=ISLD|52=20231114-08:36:52.876|56=TW|10=031|
2023/11/14 08:37:22.330075 8=FIX.4.4|9=51|35=0|34=364|49=TW|52=20231114-08:37:22.330|56=ISLD|10=015|
2023/11/14 08:37:22.880175 8=FIX.4.4|9=51|35=0|34=364|49=ISLD|52=20231114-08:37:22.878|56=TW|10=032|
2023/11/14 08:37:52.330934 8=FIX.4.4|9=51|35=0|34=365|49=TW|52=20231114-08:37:52.330|56=ISLD|10=019|
2023/11/14 08:37:52.881586 8=FIX.4.4|9=51|35=0|34=365|49=ISLD|52=20231114-08:37:52.880|56=TW|10=029|
2023/11/14 08:38:22.331880 8=FIX.4.4|9=51|35=0|34=366|49=TW|52=20231114-08:38:22.331|56=ISLD|10=019|
2023/11/14 08:38:22.884588 8=FIX.4.4|9=51|35=0|34=366|49=ISLD|52=20231114-08:38:22.881|56=TW|10=029|
2023/11/14 08:38:52.332207 8=FIX.4.4|9=51|35=0|34=367|49=TW|52=20231114-08:38:52.332|56=ISLD|10=024|
2023/11/14 08:38:52.889473 8=FIX.4.4|9=51|35=0|34=367|49=ISLD|52=20231114-08:38:52.885|56=TW|10=037|
2023/11/14 08:39:22.333447 8=FIX.4.4|9=51|35=0|34=368|49=TW|52=20231114-08:39:22.333|56=ISLD|10=024|
2023/11/14 08:39:22.892476 8=FIX.4.4|9=51|35=0|34=368|49=ISLD|52=20231114-08:39:22.889|56=TW|10=040|
2023/11/14 08:39:52.334379 8=FIX.4.4|9=51|35=0|34=369|49=TW|52=20231114-08:39:52.334|56=ISLD|10=029|
2023/11/14 08:39:52.896855 8=FIX.4.4|9=51|35=0|34=369|49=ISLD|52=20231114-08:39:52.893|56=TW|10=039|
2023/11/14 08:40:22.334766 8=FIX.4.4|9=51|35=0|34=370|49=TW|52=20231114-08:40:22.334|56=ISLD|10=010|
2023/11/14 08:40:22.900059 8=FIX.4.4|9=51|35=0|34=370|49=ISLD|52=20231114-08:40:22.896|56=TW|10=023|
2023/11/14 08:40:52.335218 8=FIX.4.4|9=51|35=0|34=371|49=TW|52=20231114-08:40:52.335|56=ISLD|10=015|
2023/11/14 08:40:52.900830 8=FIX.4.4|9=51|35=0|34=371|49=ISLD|52=20231114-08:40:52.899|56=TW|10=030|
2023/11/14 08:41:22.336345 8=FIX.4.4|9=51|35=0|34=372|49=TW|52=20231114-08:41:22.336|56=ISLD|10=015|
2023/11/14 08:41:22.902146 8=FIX.4.4|9=51|35=0|34=372|49=ISLD|52=20231114-08:41:22.900|56=TW|10=012|
2023/11/14 08:41:52.337021 8=FIX.4.4|9=51|35=0|34=373|49=TW|52=20231114-08:41:52.336|56=ISLD|10=019|
2023/11/14 08:41:52.903813 8=FIX.4.4|9=51|35=0|34=373|49=ISLD|52=20231114-08:41:52.902|56=TW|10=018|
2023/11/14 08:42:22.337951 8=FIX.4.4|9=51|35=0|34=374|49=TW|52=20231114-08:42:22.337|56=ISLD|10=019|
2023/11/14 08:42:22.905876 8=FIX.4.4|9=51|35=0|34=374|49=ISLD|52=20231114-08:42:22.904|56=TW|10=019|
2023/11/14 08:42:52.338288 8=FIX.4.4|9=51|35=0|34=375|49=TW|52=20231114-08:42:52.338|56=ISLD|10=024|
2023/11/14 08:42:52.907009 8=FIX.4.4|9=51|35=0|34=375|49=ISLD|52=20231114-08:42:52.905|56=TW|10=024|
2023/11/14 08:43:22.338882 8=FIX.4.4|9=51|35=0|34=376|49=TW|52=20231114-08:43:22.338|56=ISLD|10=023|
2023/11/14 08:43:22.910412 8=FIX.4.4|9=51|35=0|34=376|49=ISLD|52=20231114-08:43:22.907|56=TW|10=025|
2023/11/14 08:43:52.339861 8=FIX.4.4|9=51|35=0|34=377|49=TW|52=20231114-08:43:52.339|56=ISLD|10=028|
2023/11/14 08:43:52.912678 8=FIX.4.4|9=51|35=0|34=377|49=ISLD|52=20231114-08:43:52.910|56=TW|10=023|
2023/11/14 08:44:22.341037 8=FIX.4.4|9=51|35=0|34=378|49=TW|52=20231114-08:44:22.340|56=ISLD|10=019|
2023/11/14 08:44:22.915462 8=FIX.4.4|9=51|35=0|34=378|49=ISLD|52=20231114-08:44:22.913|56=TW|10=025|
2023/11/14 08:44:52.342251 8=FIX.4.4|9=51|35=0|34=379|49=TW|52=20231114-08:44:52.342|56=ISLD|10=025|
2023/11/14 08:44:52.918217 8=FIX.4.4|9=51|35=0|34=379|49=ISLD|52=20231114-08:44:52.916|56=TW|10=032|
2023/11/14 08:45:22.342844 8=FIX.4.4|9=51|35=0|34=380|49=TW|52=20231114-08:45:22.342|56=ISLD|10=015|
2023/11/14 08:45:22.921099 8=FIX.4.4|9=51|35=0|34=380|49=ISLD|52=20231114-08:45:22.918|56=TW|10=024|
2023/11/14 08:45:52.343561 8=FIX.4.4|9=51|35=0|34=381|49=TW|52=20231114-08:45:52.343|56=ISLD|10=020|
2023/11/14 08:45:52.921942 8=FIX.4.4|9=51|35=0|34=381|49=ISLD|52=20231114-08:45:52.921|56=TW|10=022|
2023/11/14 08:46:22.343990 8=FIX.4.4|9=51|35=0|34=382|49=TW|52=20231114-08:46:22.343|56=ISLD|10=019|
2023/11/14 08:46:22.924171 8=FIX.4.4|9=51|35=0|34=382|49=ISLD|52=20231114-08:46:22.922|56=TW|10=022|
2023/11/14 08:46:52.344348 8=FIX.4.4|9=51|35=0|34=383|49=TW|52=20231114-08:46:52.344|56=ISLD|10=024|
2023/11/14 08:46:52.926137 8=FIX.4.4|9=51|35=0|34=383|49=ISLD|52=20231114-08:46:52.924|56=TW|10=028|
2023/11/14 08:47:22.345396 8=FIX.4.4|9=51|35=0|34=384|49=TW|52=20231114-08:47:22.345|56=ISLD|10=024|
2023/11/14 08:47:22.929258 8=FIX.4.4|9=51|35=0|34=384|49=ISLD|52=20231114-08:47:22.926|56=TW|10=029|
2023/11/14 08:47:52.345710 8=FIX.4.4|9=51|35=0|34=385|49=TW|52=20231114-08:47:52.345|56=ISLD|10=028|
2023/11/14 08:47:52.930477 8=FIX.4.4|9=51|35=0|34=385|49=ISLD|52=20231114-08:47:52.929|56=TW|10=036|
2023/11/14 08:48:22.346625 8=FIX.4.4|9=51|35=0|34=386|49=TW|52=20231114-08:48:22.346|56=ISLD|10=028|
2023/11/14 08:48:22.932499 8=FIX.4.4|9=51|35=0|34=386|49=ISLD|52=20231114-08:48:22.930|56=TW|10=027|
2023/11/14 08:48:52.347041 8=FIX.4.4|9=51|35=0|34=387|49=TW|52=20231114-08:48:52.346|56=ISLD|10=032|
2023/11/14 08:48:52.934985 8=FIX.4.4|9=51|35=0|34=387|49=ISLD|52=20231114-08:48:52.933|56=TW|10=034|
2023/11/14 08:49:22.347982 8=FIX.4.4|9=51|35=0|34=388|49=TW|52=20231114-08:49:22.347|56=ISLD|10=032|
2023/11/14 08:49:22.938030 8=FIX.4.4|9=51|35=0|34=388|49=ISLD|52=20231114-08:49:22.935|56=TW|10=035|
2023/11/14 08:49:52.349020 8=FIX.4.4|9=51|35=0|34=389|49=TW|52=20231114-08:49:52.348|56=ISLD|10=037|
2023/11/14 08:49:52.939682 8=FIX.4.4|9=51|35=0|34=389|49=ISLD|52=20231114-08:49:52.938|56=TW|10=042|
2023/11/14 08:50:22.349294 8=FIX.4.4|9=51|35=0|34=390|49=TW|52=20231114-08:50:22.349|56=ISLD|10=019|
2023/11/14 08:50:22.942948 8=FIX.4.4|9=51|35=0|34=390|49=ISLD|52=20231114-08:50:22.940|56=TW|10=016|
2023/11/14 08:50:52.350312 8=FIX.4.4|9=51|35=0|34=391|49=TW|52=20231114-08:50:52.350|56=ISLD|10=015|
2023/11/14 08:50:52.944028 8=FIX.4.4|9=51|35=0|34=391|49=ISLD|52=20231114-08:50:52.943|56=TW|10=023|
2023/11/14 08:51:22.351222 8=FIX.4.4|9=51|35=0|34=392|49=TW|52=20231114-08:51:22.351|56=ISLD|10=015|
2023/11/14 08:51:22.945434 8=FIX.4.4|9=51|35=0|34=392|49=ISLD|52=20231114-08:51:22.944|56=TW|10=023|
2023/11/14 08:51:52.351533 8=FIX.4.4|9=51|35=0|34=393|49=TW|52=20231114-08:51:52.351|56=ISLD|10=019|
2023/11/14 08:51:52.946383 8=FIX.4.4|9=51|35=0|34=393|49=ISLD|52=20231114-08:51:52.945|56=TW|10=028|
2023/11/14 08:52:22.352041 8=FIX.4.4|9=51|35=0|34=394|49=TW|52=20231114-08:52:22.351|56=ISLD|10=018|
2023/11/14 08:52:22.948968 8=FIX.4.4|9=51|35=0|34=394|49=ISLD|52=20231114-08:52:22.947|56=TW|10=029|
2023/11/14 08:52:52.352450 8=FIX.4.4|9=51|35=0|34=395|49=TW|52=20231114-08:52:52.352|56=ISLD|10=023|
2023/11/14 08:52:52.952478 8=FIX.4.4|9=51|35=0|34=395|49=ISLD|52=20231114-08:52:52.949|56=TW|10=035|
2023/11/14 08:53:22.352969 8=FIX.4.4|9=51|35=0|34=396|49=TW|52=20231114-08:53:22.352|56=ISLD|10=022|
2023/11/14 08:53:22.953369 8=FIX.4.4|9=51|35=0|34=396|49=ISLD|52=20231114-08:53:22.952|56=TW|10=028|
2023/11/14 08:53:52.354011 8=FIX.4.4|9=51|35=0|34=397|49=TW|52=20231114-08:53:52.353|56=ISLD|10=027|
2023/11/14 08:53:52.954757 8=FIX.4.4|9=51|35=0|34=397|49=ISLD|52=20231114-08:53:52.954|56=TW|10=034|
2023/11/14 08:54:22.354220 8=FIX.4.4|9=51|35=0|34=398|49=TW|52=20231114-08:54:22.354|56=ISLD|10=027|
2023/11/14 08:54:22.955795 8=FIX.4.4|9=51|35=0|34=398|49=ISLD|52=20231114-08:54:22.955|56=TW|10=034|
2023/11/14 08:54:52.355532 8=FIX.4.4|9=51|35=0|34=399|49=TW|52=20231114-08:54:52.355|56=ISLD|10=032|
2023/11/14 08:54:52.958487 8=FIX.4.4|9=51|35=0|34=399|49=ISLD|52=20231114-08:54:52.956|56=TW|10=039|
2023/11/14 08:55:22.355799 8=FIX.4.4|9=51|35=0|34=400|49=TW|52=20231114-08:55:22.355|56=ISLD|10=013|
2023/11/14 08:55:22.959576 8=FIX.4.4|9=51|35=0|34=400|49=ISLD|52=20231114-08:55:22.958|56=TW|10=022|
2023/11/14 08:55:52.357048 8=FIX.4.4|9=51|35=0|34=401|49=TW|52=20231114-08:55:52.357|56=ISLD|10=019|
2023/11/14 08:55:52.961866 8=FIX.4.4|9=51|35=0|34=401|49=ISLD|52=20231114-08:55:52.960|56=TW|10=019|
2023/11/14 08:56:22.357462 8=FIX.4.4|9=51|35=0|34=402|49=TW|52=20231114-08:56:22.357|56=ISLD|10=018|
2023/11/14 08:56:22.963384 8=FIX.4.4|9=51|35=0|34=402|49=ISLD|52=20231114-08:56:22.962|56=TW|10=020|
2023/11/14 08:56:52.357886 8=FIX.4.4|9=51|35=0|34=403|49=TW|52=20231114-08:56:52.357|56=ISLD|10=022|
2023/11/14 08:56:52.964715 8=FIX.4.4|9=51|35=0|34=403|49=ISLD|52=20231114-08:56:52.963|56=TW|10=025|
2023/11/14 08:57:22.358244 8=FIX.4.4|9=51|35=0|34=404|49=TW|52=20231114-08:57:22.358|56=ISLD|10=022|
2023/11/14 08:57:22.968784 8=FIX.4.4|9=51|35=0|34=404|49=ISLD|52=20231114-08:57:22.964|56=TW|10=025|
2023/11/14 08:57:52.358534 8=FIX.4.4|9=51|35=0|34=405|49=TW|52=20231114-08:57:52.358|56=ISLD|10=026|
2023/11/14 08:57:52.971986 8=FIX.4.4|9=51|35=0|34=405|49=ISLD|52=20231114-08:57:52.969|56=TW|10=034|
2023/11/14 08:58:22.359629 8=FIX.4.4|9=51|35=0|34=406|49=TW|52=20231114-08:58:22.359|56=ISLD|10=026|
2023/11/14 08:58:22.973728 8=FIX.4.4|9=51|35=0|34=406|49=ISLD|52=20231114-08:58:22.972|56=TW|10=027|
2023/11/14 08:58:52.359988 8=FIX.4.4|9=51|35=0|34=407|49=TW|52=20231114-08:58:52.359|56=ISLD|10=030|
2023/11/14 08:58:52.976640 8=FIX.4.4|9=51|35=0|34=407|49=ISLD|52=20231114-08:58:52.974|56=TW|10=033|
2023/11/14 08:59:22.360990 8=FIX.4.4|9=51|35=0|34=408|49=TW|52=20231114-08:59:22.360|56=ISLD|10=021|
2023/11/14 08:59:22.979293 8=FIX.4.4|9=51|35=0|34=408|49=ISLD|52=20231114-08:59:22.976|56=TW|10=034|
2023/11/14 08:59:52.362020 8=FIX.4.4|9=51|35=0|34=409|49=TW|52=20231114-08:59:52.361|56=ISLD|10=026|
2023/11/14 08:59:52.980366 8=FIX.4.4|9=51|35=0|34=409|49=ISLD|52=20231114-08:59:52.979|56=TW|10=041|
2023/11/14 09:00:22.363426 8=FIX.4.4|9=51|35=0|34=410|49=TW|52=20231114-09:00:22.363|56=ISLD|10=004|
2023/11/14 09:00:22.982182 8=FIX.4.4|9=51|35=0|34=410|49=ISLD|52=20231114-09:00:22.980|56=TW|10=009|
2023/11/14 09:00:52.364416 8=FIX.4.4|9=51|35=0|34=411|49=TW|52=20231114-09:00:52.364|56=ISLD|10=009|
2023/11/14 09:00:52.983566 8=FIX.4.4|9=51|35=0|34=411|49=ISLD|52=20231114-09:00:52.982|56=TW|10=015|
2023/11/14 09:01:22.364895 8=FIX.4.4|9=51|35=0|34=412|49=TW|52=20231114-09:01:22.364|56=ISLD|10=008|
2023/11/14 09:01:22.986795 8=FIX.4.4|9=51|35=0|34=412|49=ISLD|52=20231114-09:01:22.983|56=TW|10=015|
2023/11/14 09:01:52.365227 8=FIX.4.4|9=51|35=0|34=413|49=TW|52=20231114-09:01:52.365|56=ISLD|10=013|
2023/11/14 09:01:52.989004 8=FIX.4.4|9=51|35=0|34=413|49=ISLD|52=20231114-09:01:52.987|56=TW|10=023|
2023/11/14 09:02:22.366333 8=FIX.4.4|9=51|35=0|34=414|49=TW|52=20231114-09:02:22.366|56=ISLD|10=013|
2023/11/14 09:02:22.992197 8=FIX.4.4|9=51|35=0|34=414|49=ISLD|52=20231114-09:02:22.989|56=TW|10=024|
2023/11/14 09:02:52.366790 8=FIX.4.4|9=51|35=0|34=415|49=TW|52=20231114-09:02:52.366|56=ISLD|10=017|
2023/11/14 09:02:52.993449 8=FIX.4.4|9=51|35=0|34=415|49=ISLD|52=20231114-09:02:52.992|56=TW|10=022|
2023/11/14 09:03:22.367181 8=FIX.4.4|9=51|35=0|34=416|49=TW|52=20231114-09:03:22.367|56=ISLD|10=017|
2023/11/14 09:03:22.996983 8=FIX.4.4|9=51|35=0|34=416|49=ISLD|52=20231114-09:03:22.993|56=TW|10=022|
2023/11/14 09:03:52.368432 8=FIX.4.4|9=51|35=0|34=417|49=TW|52=20231114-09:03:52.368|56=ISLD|10=022|
2023/11/14 09:03:52.999130 8=FIX.4.4|9=51|35=0|34=417|49=ISLD|52=20231114-09:03:52.997|56=TW|10=030|
2023/11/14 09:04:22.369475 8=FIX.4.4|9=51|35=0|34=418|49=TW|52=20231114-09:04:22.369|56=ISLD|10=022|
2023/11/14 09:04:23.001783 8=FIX.4.4|9=51|35=0|34=418|49=ISLD|52=20231114-09:04:22.999|56=TW|10=031|
2023/11/14 09:04:52.369656 8=FIX.4.4|9=51|35=0|34=419|49=TW|52=20231114-09:04:52.369|56=ISLD|10=026|
2023/11/14 09:04:53.003429 8=FIX.4.4|9=51|35=0|34=419|49=ISLD|52=20231114-09:04:53.001|56=TW|10=010|
2023/11/14 09:05:22.370248 8=FIX.4.4|9=51|35=0|34=420|49=TW|52=20231114-09:05:22.370|56=ISLD|10=008|
2023/11/14 09:05:23.007912 8=FIX.4.4|9=51|35=0|34=420|49=ISLD|52=20231114-09:05:23.003|56=TW|10=002|
2023/11/14 09:05:52.370601 8=FIX.4.4|9=51|35=0|34=421|49=TW|52=20231114-09:05:52.370|56=ISLD|10=012|
2023/11/14 09:05:53.013845 8=FIX.4.4|9=51|35=0|34=421|49=ISLD|52=20231114-09:05:53.010|56=TW|10=004|
2023/11/14 09:06:22.371082 8=FIX.4.4|9=51|35=0|34=422|49=TW|52=20231114-09:06:22.371|56=ISLD|10=012|
2023/11/14 09:06:23.017139 8=FIX.4.4|9=51|35=0|34=422|49=ISLD|52=20231114-09:06:23.014|56=TW|10=007|
2023/11/14 09:06:52.371880 8=FIX.4.4|9=51|35=0|34=423|49=TW|52=20231114-09:06:52.371|56=ISLD|10=016|
2023/11/14 09:06:53.018350 8=FIX.4.4|9=51|35=0|34=423|49=ISLD|52=20231114-09:06:53.017|56=TW|10=014|
2023/11/14 09:07:22.372343 8=FIX.4.4|9=51|35=0|34=424|49=TW|52=20231114-09:07:22.372|56=ISLD|10=016|
2023/11/14 09:07:23.023074 8=FIX.4.4|9=51|35=0|34=424|49=ISLD|52=20231114-09:07:23.018|56=TW|10=014|
2023/11/14 09:07:52.373283 8=FIX.4.4|9=51|35=0|34=425|49=TW|52=20231114-09:07:52.373|56=ISLD|10=021|
2023/11/14 09:07:53.023900 8=FIX.4.4|9=51|35=0|34=425|49=ISLD|52=20231114-09:07:53.022|56=TW|10=013|
2023/11/14 09:08:22.374004 8=FIX.4.4|9=51|35=0|34=426|49=TW|52=20231114-09:08:22.373|56=ISLD|10=020|
2023/11/14 09:08:23.028022 8=FIX.4.4|9=51|35=0|34=426|49=ISLD|52=20231114-09:08:23.024|56=TW|10=014|
2023/11/14 09:08:52.375100 8=FIX.4.4|9=51|35=0|34=427|49=TW|52=20231114-09:08:52.375|56=ISLD|10=026|
2023/11/14 09:08:53.028792 8=FIX.4.4|9=51|35=0|34=427|49=ISLD|52=20231114-09:08:53.027|56=TW|10=021|
2023/11/14 09:09:22.375521 8=FIX.4.4|9=51|35=0|34=428|49=TW|52=20231114-09:09:22.375|56=ISLD|10=025|
2023/11/14 09:09:23.031417 8=FIX.4.4|9=51|35=0|34=428|49=ISLD|52=20231114-09:09:23.029|56=TW|10=022|
2023/11/14 09:09:52.375746 8=FIX.4.4|9=51|35=0|34=429|49=TW|52=20231114-09:09:52.375|56=ISLD|10=029|
2023/11/14 09:09:53.038968 8=FIX.4.4|9=51|35=0|34=429|49=ISLD|52=20231114-09:09:53.038|56=TW|10=026|
2023/11/14 09:10:22.376900 8=FIX.4.4|9=51|35=0|34=430|49=TW|52=20231114-09:10:22.376|56=ISLD|10=011|
2023/11/14 09:10:23.039751 8=FIX.4.4|9=51|35=0|34=430|49=ISLD|52=20231114-09:10:23.039|56=TW|10=008|
2023/11/14 09:10:52.377982 8=FIX.4.4|9=51|35=0|34=431|49=TW|52=20231114-09:10:52.377|56=ISLD|10=016|
2023/11/14 09:10:53.047766 8=FIX.4.4|9=51|35=0|34=431|49=ISLD|52=20231114-09:10:53.041|56=TW|10=005|
2023/11/14 09:11:22.378265 8=FIX.4.4|9=51|35=0|34=432|49=TW|52=20231114-09:11:22.378|56=ISLD|10=016|
2023/11/14 09:11:23.048750 8=FIX.4.4|9=51|35=0|34=432|49=ISLD|52=20231114-09:11:23.047|56=TW|10=010|
2023/11/14 09:11:52.379108 8=FIX.4.4|9=51|35=0|34=433|49=TW|52=20231114-09:11:52.379|56=ISLD|10=021|
2023/11/14 09:11:53.050168 8=FIX.4.4|9=51|35=0|34=433|49=ISLD|52=20231114-09:11:53.049|56=TW|10=016|
2023/11/14 09:12:22.379977 8=FIX.4.4|9=51|35=0|34=434|49=TW|52=20231114-09:12:22.379|56=ISLD|10=020|
2023/11/14 09:12:23.050954 8=FIX.4.4|9=51|35=0|34=434|49=ISLD|52=20231114-09:12:23.050|56=TW|10=007|
2023/11/14 09:12:52.380293 8=FIX.4.4|9=51|35=0|34=435|49=TW|52=20231114-09:12:52.380|56=ISLD|10=016|
2023/11/14 09:12:53.051956 8=FIX.4.4|9=51|35=0|34=435|49=ISLD|52=20231114-09:12:53.051|56=TW|10=012|
2023/11/14 09:13:22.380967 8=FIX.4.4|9=51|35=0|34=436|49=TW|52=20231114-09:13:22.380|56=ISLD|10=015|
2023/11/14 09:13:23.055992 8=FIX.4.4|9=51|35=0|34=436|49=ISLD|52=20231114-09:13:23.052|56=TW|10=012|
2023/11/14 09:13:52.381888 8=FIX.4.4|9=51|35=0|34=437|49=TW|52=20231114-09:13:52.381|56=ISLD|10=020|
2023/11/14 09:13:53.056818 8=FIX.4.4|9=51|35=0|34=437|49=ISLD|52=20231114-09:13:53.056|56=TW|10=020|
2023/11/14 09:14:22.382918 8=FIX.4.4|9=51|35=0|34=438|49=TW|52=20231114-09:14:22.382|56=ISLD|10=020|
2023/11/14 09:14:23.060755 8=FIX.4.4|9=51|35=0|34=438|49=ISLD|52=20231114-09:14:23.057|56=TW|10=020|
2023/11/14 09:14:52.383963 8=FIX.4.4|9=51|35=0|34=439|49=TW|52=20231114-09:14:52.383|56=ISLD|10=025|
2023/11/14 09:14:53.064080 8=FIX.4.4|9=51|35=0|34=439|49=ISLD|52=20231114-09:14:53.061|56=TW|10=019|
2023/11/14 09:15:22.384264 8=FIX.4.4|9=51|35=0|34=440|49=TW|52=20231114-09:15:22.384|56=ISLD|10=016|
2023/11/14 09:15:23.066387 8=FIX.4.4|9=51|35=0|34=440|49=ISLD|52=20231114-09:15:23.064|56=TW|10=012|
2023/11/14 09:15:52.385389 8=FIX.4.4|9=51|35=0|34=441|49=TW|52=20231114-09:15:52.385|56=ISLD|10=021|
2023/11/14 09:15:53.067961 8=FIX.4.4|9=51|35=0|34=441|49=ISLD|52=20231114-09:15:53.067|56=TW|10=019|
2023/11/14 09:16:22.385701 8=FIX.4.4|9=51|35=0|34=442|49=TW|52=20231114-09:16:22.385|56=ISLD|10=020|
2023/11/14 09:16:23.069901 8=FIX.4.4|9=51|35=0|34=442|49=ISLD|52=20231114-09:16:23.068|56=TW|10=019|
2023/11/14 09:16:52.385966 8=FIX.4.4|9=51|35=0|34=443|49=TW|52=20231114-09:16:52.385|56=ISLD|10=024|
2023/11/14 09:16:53.072040 8=FIX.4.4|9=51|35=0|34=443|49=ISLD|52=20231114-09:16:53.070|56=TW|10=016|
2023/11/14 09:17:22.386242 8=FIX.4.4|9=51|35=0|34=444|49=TW|52=20231114-09:17:22.386|56=ISLD|10=024|
2023/11/14 09:17:23.072896 8=FIX.4.4|9=51|35=0|34=444|49=ISLD|52=20231114-09:17:23.072|56=TW|10=017|
2023/11/14 09:17:52.387498 8=FIX.4.4|9=51|35=0|34=445|49=TW|52=20231114-09:17:52.387|56=ISLD|10=029|
2023/11/14 09:17:53.074148 8=FIX.4.4|9=51|35=0|34=445|49=ISLD|52=20231114-09:17:53.073|56=TW|10=022|
2023/11/14 09:18:22.388282 8=FIX.4.4|9=51|35=0|34=446|49=TW|52=20231114-09:18:22.388|56=ISLD|10=029|
2023/11/14 09:18:23.075924 8=FIX.4.4|9=51|35=0|34=446|49=ISLD|52=20231114-09:18:23.074|56=TW|10=022|
2023/11/14 09:18:52.388889 8=FIX.4.4|9=51|35=0|34=447|49=TW|52=20231114-09:18:52.388|56=ISLD|10=033|
2023/11/14 09:18:53.078023 8=FIX.4.4|9=51|35=0|34=447|49=ISLD|52=20231114-09:18:53.076|56=TW|10=028|
2023/11/14 09:19:22.390149 8=FIX.4.4|9=51|35=0|34=448|49=TW|52=20231114-09:19:22.390|56=ISLD|10=025|
2023/11/14 09:19:23.081224 8=FIX.4.4|9=51|35=0|34=448|49=ISLD|52=20231114-09:19:23.078|56=TW|10=029|
2023/11/14 09:19:52.391560 8=FIX.4.4|9=51|35=0|34=449|49=TW|52=20231114-09:19:52.391|56=ISLD|10=030|
2023/11/14 09:19:53.082009 8=FIX.4.4|9=51|35=0|34=449|49=ISLD|52=20231114-09:19:53.081|56=TW|10=027|
2023/11/14 09:20:22.392320 8=FIX.4.4|9=51|35=0|34=450|49=TW|52=20231114-09:20:22.392|56=ISLD|10=012|
2023/11/14 09:20:23.084235 8=FIX.4.4|9=51|35=0|34=450|49=ISLD|52=20231114-09:20:23.082|56=TW|10=009|
2023/11/14 09:20:52.393025 8=FIX.4.4|9=51|35=0|34=451|49=TW|52=20231114-09:20:52.393|56=ISLD|10=017|
2023/11/14 09:20:53.087328 8=FIX.4.4|9=51|35=0|34=451|49=ISLD|52=20231114-09:20:53.084|56=TW|10=015|
2023/11/14 09:21:22.394000 8=FIX.4.4|9=51|35=0|34=452|49=TW|52=20231114-09:21:22.393|56=ISLD|10=016|
2023/11/14 09:21:23.091261 8=FIX.4.4|9=51|35=0|34=452|49=ISLD|52=20231114-09:21:23.087|56=TW|10=017|
2023/11/14 09:21:52.394999 8=FIX.4.4|9=51|35=0|34=453|49=TW|52=20231114-09:21:52.394|56=ISLD|10=021|
2023/11/14 09:21:53.091926 8=FIX.4.4|9=51|35=0|34=453|49=ISLD|52=20231114-09:21:53.091|56=TW|10=016|
